{
  "contractName": "AccessControl",
  "abi": [
    {
      "inputs": [],
      "stateMutability": "nonpayable",
      "type": "constructor"
    },
    {
      "inputs": [
        {
          "internalType": "address",
          "name": "a",
          "type": "address"
        }
      ],
      "name": "inSuperAdmins",
      "outputs": [
        {
          "internalType": "bool",
          "name": "",
          "type": "bool"
        }
      ],
      "stateMutability": "view",
      "type": "function",
      "constant": true
    },
    {
      "inputs": [
        {
          "internalType": "address",
          "name": "a",
          "type": "address"
        }
      ],
      "name": "inAdmins",
      "outputs": [
        {
          "internalType": "bool",
          "name": "",
          "type": "bool"
        }
      ],
      "stateMutability": "view",
      "type": "function",
      "constant": true
    },
    {
      "inputs": [
        {
          "internalType": "address",
          "name": "a",
          "type": "address"
        }
      ],
      "name": "addSuperAdmin",
      "outputs": [],
      "stateMutability": "nonpayable",
      "type": "function"
    },
    {
      "inputs": [
        {
          "internalType": "address",
          "name": "a",
          "type": "address"
        }
      ],
      "name": "addAdmin",
      "outputs": [],
      "stateMutability": "nonpayable",
      "type": "function"
    },
    {
      "inputs": [
        {
          "internalType": "address",
          "name": "a",
          "type": "address"
        }
      ],
      "name": "delSuperAdmin",
      "outputs": [],
      "stateMutability": "nonpayable",
      "type": "function"
    },
    {
      "inputs": [
        {
          "internalType": "address",
          "name": "a",
          "type": "address"
        }
      ],
      "name": "delAdmins",
      "outputs": [],
      "stateMutability": "nonpayable",
      "type": "function"
    },
    {
      "inputs": [],
      "name": "getAdmins",
      "outputs": [
        {
          "internalType": "address",
          "name": "",
          "type": "address"
        },
        {
          "internalType": "address[]",
          "name": "",
          "type": "address[]"
        },
        {
          "internalType": "address[]",
          "name": "",
          "type": "address[]"
        }
      ],
      "stateMutability": "view",
      "type": "function",
      "constant": true
    }
  ],
  "bytecode": "0x608060405234801561001057600080fd5b50336000806101000a81548173ffffffffffffffffffffffffffffffffffffffff021916908373ffffffffffffffffffffffffffffffffffffffff160217905550610a4c806100606000396000f3fe608060405234801561001057600080fd5b506004361061007d5760003560e01c8063704802751161005b5780637048027514610214578063793be8e814610258578063b3292ff01461029c578063bc5bef33146102e05761007d565b80631b48315c1461008257806331ae450b146100de5780635c05ee8d146101b8575b600080fd5b6100c46004803603602081101561009857600080fd5b81019080803573ffffffffffffffffffffffffffffffffffffffff169060200190929190505050610324565b604051808215151515815260200191505060405180910390f35b6100e66103c6565b604051808473ffffffffffffffffffffffffffffffffffffffff1673ffffffffffffffffffffffffffffffffffffffff1681526020018060200180602001838103835285818151815260200191508051906020019060200280838360005b8381101561015f578082015181840152602081019050610144565b50505050905001838103825284818151815260200191508051906020019060200280838360005b838110156101a1578082015181840152602081019050610186565b505050509050019550505050505060405180910390f35b6101fa600480360360208110156101ce57600080fd5b81019080803573ffffffffffffffffffffffffffffffffffffffff16906020019092919050505061050c565b604051808215151515815260200191505060405180910390f35b6102566004803603602081101561022a57600080fd5b81019080803573ffffffffffffffffffffffffffffffffffffffff1690602001909291905050506105ae565b005b61029a6004803603602081101561026e57600080fd5b81019080803573ffffffffffffffffffffffffffffffffffffffff169060200190929190505050610690565b005b6102de600480360360208110156102b257600080fd5b81019080803573ffffffffffffffffffffffffffffffffffffffff1690602001909291905050506107f2565b005b610322600480360360208110156102f657600080fd5b81019080803573ffffffffffffffffffffffffffffffffffffffff1690602001909291905050506108c4565b005b600080600090505b6002805490508110156103bb578273ffffffffffffffffffffffffffffffffffffffff166002828154811061035d57fe5b9060005260206000200160009054906101000a900473ffffffffffffffffffffffffffffffffffffffff1673ffffffffffffffffffffffffffffffffffffffff1614156103ae5760019150506103c1565b808060010191505061032c565b50600090505b919050565b60006060806000809054906101000a900473ffffffffffffffffffffffffffffffffffffffff16600160028180548060200260200160405190810160405280929190818152602001828054801561047257602002820191906000526020600020905b8160009054906101000a900473ffffffffffffffffffffffffffffffffffffffff1673ffffffffffffffffffffffffffffffffffffffff1681526020019060010190808311610428575b50505050509150808054806020026020016040519081016040528092919081815260200182805480156104fa57602002820191906000526020600020905b8160009054906101000a900473ffffffffffffffffffffffffffffffffffffffff1673ffffffffffffffffffffffffffffffffffffffff16815260200190600101908083116104b0575b50505050509050925092509250909192565b600080600090505b6001805490508110156105a3578273ffffffffffffffffffffffffffffffffffffffff166001828154811061054557fe5b9060005260206000200160009054906101000a900473ffffffffffffffffffffffffffffffffffffffff1673ffffffffffffffffffffffffffffffffffffffff1614156105965760019150506105a9565b8080600101915050610514565b50600090505b919050565b6000809054906101000a900473ffffffffffffffffffffffffffffffffffffffff1673ffffffffffffffffffffffffffffffffffffffff163373ffffffffffffffffffffffffffffffffffffffff16148061060e575061060d3361050c565b5b61061757600080fd5b61062081610324565b1561062a57600080fd5b6002819080600181540180825580915050600190039060005260206000200160009091909190916101000a81548173ffffffffffffffffffffffffffffffffffffffff021916908373ffffffffffffffffffffffffffffffffffffffff16021790555050565b6000809054906101000a900473ffffffffffffffffffffffffffffffffffffffff1673ffffffffffffffffffffffffffffffffffffffff163373ffffffffffffffffffffffffffffffffffffffff1614806106f057506106ef3361050c565b5b6106f957600080fd5b61070281610324565b61070b57600080fd5b60008090505b6002805490508110156107ee578173ffffffffffffffffffffffffffffffffffffffff166002828154811061074257fe5b9060005260206000200160009054906101000a900473ffffffffffffffffffffffffffffffffffffffff1673ffffffffffffffffffffffffffffffffffffffff1614156107e15760006002828154811061079857fe5b9060005260206000200160006101000a81548173ffffffffffffffffffffffffffffffffffffffff021916908373ffffffffffffffffffffffffffffffffffffffff1602179055505b8080600101915050610711565b5050565b6000809054906101000a900473ffffffffffffffffffffffffffffffffffffffff1673ffffffffffffffffffffffffffffffffffffffff163373ffffffffffffffffffffffffffffffffffffffff161461084b57600080fd5b6108548161050c565b1561085e57600080fd5b6001819080600181540180825580915050600190039060005260206000200160009091909190916101000a81548173ffffffffffffffffffffffffffffffffffffffff021916908373ffffffffffffffffffffffffffffffffffffffff16021790555050565b6000809054906101000a900473ffffffffffffffffffffffffffffffffffffffff1673ffffffffffffffffffffffffffffffffffffffff163373ffffffffffffffffffffffffffffffffffffffff161461091d57600080fd5b6109268161050c565b61092f57600080fd5b60008090505b600180549050811015610a12578173ffffffffffffffffffffffffffffffffffffffff166001828154811061096657fe5b9060005260206000200160009054906101000a900473ffffffffffffffffffffffffffffffffffffffff1673ffffffffffffffffffffffffffffffffffffffff161415610a05576000600182815481106109bc57fe5b9060005260206000200160006101000a81548173ffffffffffffffffffffffffffffffffffffffff021916908373ffffffffffffffffffffffffffffffffffffffff1602179055505b8080600101915050610935565b505056fea2646970667358221220cd814e32a48134e01cee6aa0e002bfaaf5c693c06162766d39fbd31c22979aef64736f6c634300060a0033",
  "immutableReferences": {},
  "source": "pragma solidity >=0.4.24 <0.7.0;\n\ncontract AccessControl {\n    address owner;  //界主\n    address[] superadmins; //太上\n    address[] admins;     //长老\n    \n    constructor() public {\n        owner = msg.sender;\n    }\n    \n    \n    //判断是不是太上\n    function inSuperAdmins(address a) \n        public \n        view \n        returns(bool)\n    {\n        for(uint i = 0; i < superadmins.length; i ++){\n            if(superadmins[i] == a){\n                return true;\n            }\n        }\n        return false;\n    }\n    \n    //判断是不是长老\n    function inAdmins(address a) \n        public \n        view \n        returns(bool)\n    {\n        for(uint i = 0; i < admins.length; i ++){\n            if(admins[i] == a){\n                return true;\n            }\n        }\n        return false;\n    }\n    \n    modifier onlyOwner() {\n        require(msg.sender == owner);\n        _;\n    }\n    \n    function addSuperAdmin(address a) \n        public \n        onlyOwner\n    {\n        require(!inSuperAdmins(a));\n        superadmins.push(a);\n    }\n    \n    function addAdmin(address a) \n        public \n    {\n        require(msg.sender == owner || inSuperAdmins(msg.sender));\n        require(!inAdmins(a));\n        admins.push(a);\n    }\n    \n    function delSuperAdmin(address a)\n        public\n        onlyOwner\n    {\n        require(inSuperAdmins(a));\n        for(uint i = 0; i < superadmins.length; i ++ )\n        {\n            if(superadmins[i] == a)\n            {\n                superadmins[i] = address(0);\n            }\n        }\n    }\n    \n    function delAdmins(address a)\n        public\n    {\n        require(msg.sender == owner || inSuperAdmins(msg.sender));\n        require(inAdmins(a));\n        for(uint i = 0; i < admins.length; i ++ )\n        {\n            if(admins[i] == a)\n            {\n                admins[i] = address(0);\n            }\n        }\n    }\n \n    function getAdmins()\n        public\n        view\n        returns(address, address[] memory, address[] memory)\n    {\n        return (owner, superadmins, admins);\n    }\n    \n}",
  "sourcePath": "D:\\vue-work\\truffle-contract\\contracts\\AccessControl.sol",
  "compiler": {
    "name": "solc",
    "version": "0.6.10+commit.00c0fcaf.Emscripten.clang"
  },
  "schemaVersion": "3.2.0",
  "updatedAt": "2020-07-06T00:35:59.195Z",
  "networkType": "ethereum",
  "devdoc": {
    "methods": {}
  },
  "userdoc": {
    "methods": {}
  }
}