{
  "contractName": "Bounty",
  "abi": [
    {
      "anonymous": false,
      "inputs": [
        {
          "indexed": false,
          "internalType": "uint256",
          "name": "_uid",
          "type": "uint256"
        },
        {
          "components": [
            {
              "internalType": "string",
              "name": "hash",
              "type": "string"
            },
            {
              "internalType": "address",
              "name": "promoter",
              "type": "address"
            },
            {
              "internalType": "address",
              "name": "hunterA",
              "type": "address"
            },
            {
              "internalType": "address[]",
              "name": "hunters",
              "type": "address[]"
            },
            {
              "internalType": "string[]",
              "name": "reasonHashs",
              "type": "string[]"
            },
            {
              "internalType": "uint256",
              "name": "bonus",
              "type": "uint256"
            },
            {
              "internalType": "uint256",
              "name": "taskStart",
              "type": "uint256"
            },
            {
              "internalType": "uint256",
              "name": "taskDeadLine",
              "type": "uint256"
            },
            {
              "internalType": "enum Bounty.State",
              "name": "state",
              "type": "uint8"
            }
          ],
          "indexed": false,
          "internalType": "struct Bounty.TaskMessage",
          "name": "_task",
          "type": "tuple"
        }
      ],
      "name": "SetTask",
      "type": "event"
    },
    {
      "inputs": [],
      "name": "id",
      "outputs": [
        {
          "internalType": "uint256",
          "name": "",
          "type": "uint256"
        }
      ],
      "stateMutability": "view",
      "type": "function",
      "constant": true
    },
    {
      "inputs": [
        {
          "internalType": "uint256",
          "name": "",
          "type": "uint256"
        }
      ],
      "name": "tasks",
      "outputs": [
        {
          "internalType": "string",
          "name": "hash",
          "type": "string"
        },
        {
          "internalType": "address",
          "name": "promoter",
          "type": "address"
        },
        {
          "internalType": "address",
          "name": "hunterA",
          "type": "address"
        },
        {
          "internalType": "uint256",
          "name": "bonus",
          "type": "uint256"
        },
        {
          "internalType": "uint256",
          "name": "taskStart",
          "type": "uint256"
        },
        {
          "internalType": "uint256",
          "name": "taskDeadLine",
          "type": "uint256"
        },
        {
          "internalType": "enum Bounty.State",
          "name": "state",
          "type": "uint8"
        }
      ],
      "stateMutability": "view",
      "type": "function",
      "constant": true
    },
    {
      "inputs": [
        {
          "internalType": "string",
          "name": "_hash",
          "type": "string"
        },
        {
          "internalType": "uint256",
          "name": "_bonus",
          "type": "uint256"
        },
        {
          "internalType": "uint256",
          "name": "_hour",
          "type": "uint256"
        },
        {
          "internalType": "uint256",
          "name": "_minunt",
          "type": "uint256"
        }
      ],
      "name": "setTask",
      "outputs": [],
      "stateMutability": "nonpayable",
      "type": "function"
    },
    {
      "inputs": [
        {
          "internalType": "uint256",
          "name": "_uid",
          "type": "uint256"
        },
        {
          "internalType": "string",
          "name": "_reasonHashs",
          "type": "string"
        }
      ],
      "name": "applyTask",
      "outputs": [],
      "stateMutability": "nonpayable",
      "type": "function"
    },
    {
      "inputs": [
        {
          "internalType": "uint256",
          "name": "_uid",
          "type": "uint256"
        }
      ],
      "name": "cancelTask",
      "outputs": [],
      "stateMutability": "nonpayable",
      "type": "function"
    },
    {
      "inputs": [
        {
          "internalType": "uint256",
          "name": "_uid",
          "type": "uint256"
        },
        {
          "internalType": "address",
          "name": "a",
          "type": "address"
        }
      ],
      "name": "confirmHunter",
      "outputs": [],
      "stateMutability": "nonpayable",
      "type": "function"
    },
    {
      "inputs": [
        {
          "internalType": "uint256",
          "name": "_uid",
          "type": "uint256"
        }
      ],
      "name": "hunterAFinished",
      "outputs": [],
      "stateMutability": "nonpayable",
      "type": "function"
    },
    {
      "inputs": [
        {
          "internalType": "uint256",
          "name": "_uid",
          "type": "uint256"
        }
      ],
      "name": "hunterAOutOfTime",
      "outputs": [],
      "stateMutability": "nonpayable",
      "type": "function"
    },
    {
      "inputs": [
        {
          "internalType": "uint256",
          "name": "_uid",
          "type": "uint256"
        }
      ],
      "name": "promoterFinished",
      "outputs": [],
      "stateMutability": "nonpayable",
      "type": "function"
    },
    {
      "inputs": [
        {
          "internalType": "uint256",
          "name": "_uid",
          "type": "uint256"
        }
      ],
      "name": "taskFallback",
      "outputs": [],
      "stateMutability": "nonpayable",
      "type": "function"
    },
    {
      "inputs": [
        {
          "internalType": "uint256",
          "name": "_uid",
          "type": "uint256"
        }
      ],
      "name": "promoterOutOfTime",
      "outputs": [],
      "stateMutability": "nonpayable",
      "type": "function"
    },
    {
      "inputs": [
        {
          "internalType": "uint256",
          "name": "_uid",
          "type": "uint256"
        }
      ],
      "name": "getTask",
      "outputs": [
        {
          "components": [
            {
              "internalType": "string",
              "name": "hash",
              "type": "string"
            },
            {
              "internalType": "address",
              "name": "promoter",
              "type": "address"
            },
            {
              "internalType": "address",
              "name": "hunterA",
              "type": "address"
            },
            {
              "internalType": "address[]",
              "name": "hunters",
              "type": "address[]"
            },
            {
              "internalType": "string[]",
              "name": "reasonHashs",
              "type": "string[]"
            },
            {
              "internalType": "uint256",
              "name": "bonus",
              "type": "uint256"
            },
            {
              "internalType": "uint256",
              "name": "taskStart",
              "type": "uint256"
            },
            {
              "internalType": "uint256",
              "name": "taskDeadLine",
              "type": "uint256"
            },
            {
              "internalType": "enum Bounty.State",
              "name": "state",
              "type": "uint8"
            }
          ],
          "internalType": "struct Bounty.TaskMessage",
          "name": "",
          "type": "tuple"
        }
      ],
      "stateMutability": "view",
      "type": "function",
      "constant": true
    }
  ],
  "bytecode": "0x608060405273241379715a7ab2958976a237c26d2e1986b55a9b6000806101000a81548173ffffffffffffffffffffffffffffffffffffffff021916908373ffffffffffffffffffffffffffffffffffffffff160217905550600060015534801561006957600080fd5b506123b9806100796000396000f3fe608060405234801561001057600080fd5b50600436106100b45760003560e01c80638d977672116100715780638d9776721461017557806390bdcded146101ab578063ac357983146101c7578063af640d0f146101e3578063cccd05be14610201578063d8a50c431461021d576100b4565b806303c56121146100b9578063145d62a6146100d55780631a00a158146100f15780631d65e77e1461010d578063232871ba1461013d5780637eec20a814610159575b600080fd5b6100d360048036038101906100ce919061188a565b610239565b005b6100ef60048036038101906100ea919061192e565b610420565b005b61010b60048036038101906101069190611905565b610585565b005b61012760048036038101906101229190611905565b61077b565b6040516101349190611fc2565b60405180910390f35b61015760048036038101906101529190611905565b610ab9565b005b610173600480360381019061016e9190611905565b610c05565b005b61018f600480360381019061018a9190611905565b610de0565b6040516101a29796959493929190611f4c565b60405180910390f35b6101c560048036038101906101c09190611905565b610f07565b005b6101e160048036038101906101dc9190611905565b6110d4565b005b6101eb611221565b6040516101f89190611fe4565b60405180910390f35b61021b6004803603810190610216919061196a565b611227565b005b61023760048036038101906102329190611905565b6113ab565b005b600180600082825401925050819055508360026000600154815260200190815260200160002060000190805190602001906102759291906116a6565b503360026000600154815260200190815260200160002060010160006101000a81548173ffffffffffffffffffffffffffffffffffffffff021916908373ffffffffffffffffffffffffffffffffffffffff1602179055508260026000600154815260200190815260200160002060050181905550603c8102610e10830201600260006001548152602001908152602001600020600701819055506000809054906101000a900473ffffffffffffffffffffffffffffffffffffffff1673ffffffffffffffffffffffffffffffffffffffff16635c6bcad4306002868161035857fe5b0486016040518363ffffffff1660e01b8152600401610378929190611f23565b602060405180830381600087803b15801561039257600080fd5b505af11580156103a6573d6000803e3d6000fd5b505050506040513d601f19601f820116820180604052508101906103ca9190611861565b507ff3a8072dc3fdd785c79fc04c2c5bf96636e99f9e3ce42762cc939e15bafd60d0600154600260006001548152602001908152602001600020604051610412929190611fff565b60405180910390a150505050565b81600080600681111561042f57fe5b6002600084815260200190815260200160002060080160009054906101000a900460ff16600681111561045e57fe5b1461046857600080fd5b836002600082815260200190815260200160002060010160009054906101000a900473ffffffffffffffffffffffffffffffffffffffff1673ffffffffffffffffffffffffffffffffffffffff163373ffffffffffffffffffffffffffffffffffffffff16146104d757600080fd5b836002600087815260200190815260200160002060020160006101000a81548173ffffffffffffffffffffffffffffffffffffffff021916908373ffffffffffffffffffffffffffffffffffffffff160217905550426002600087815260200190815260200160002060060181905550600280600087815260200190815260200160002060080160006101000a81548160ff0219169083600681111561057957fe5b02179055505050505050565b80600260008281526020019081526020016000206007015460026000838152602001908152602001600020600601540142116105c057600080fd5b8160038060068111156105cf57fe5b6002600084815260200190815260200160002060080160009054906101000a900460ff1660068111156105fe57fe5b1461060857600080fd5b836002600082815260200190815260200160002060020160009054906101000a900473ffffffffffffffffffffffffffffffffffffffff1673ffffffffffffffffffffffffffffffffffffffff163373ffffffffffffffffffffffffffffffffffffffff161461067757600080fd5b6000809054906101000a900473ffffffffffffffffffffffffffffffffffffffff1673ffffffffffffffffffffffffffffffffffffffff1663a9059cbb3360026000898152602001908152602001600020600501546040518363ffffffff1660e01b81526004016106e9929190611efa565b602060405180830381600087803b15801561070357600080fd5b505af1158015610717573d6000803e3d6000fd5b505050506040513d601f19601f8201168201806040525081019061073b9190611861565b5060066002600087815260200190815260200160002060080160006101000a81548160ff0219169083600681111561076f57fe5b02179055505050505050565b610783611726565b6002600083815260200190815260200160002060405180610120016040529081600082018054600181600116156101000203166002900480601f01602080910402602001604051908101604052809291908181526020018280546001816001161561010002031660029004801561083b5780601f106108105761010080835404028352916020019161083b565b820191906000526020600020905b81548152906001019060200180831161081e57829003601f168201915b505050505081526020016001820160009054906101000a900473ffffffffffffffffffffffffffffffffffffffff1673ffffffffffffffffffffffffffffffffffffffff1673ffffffffffffffffffffffffffffffffffffffff1681526020016002820160009054906101000a900473ffffffffffffffffffffffffffffffffffffffff1673ffffffffffffffffffffffffffffffffffffffff1673ffffffffffffffffffffffffffffffffffffffff1681526020016003820180548060200260200160405190810160405280929190818152602001828054801561097557602002820191906000526020600020905b8160009054906101000a900473ffffffffffffffffffffffffffffffffffffffff1673ffffffffffffffffffffffffffffffffffffffff168152602001906001019080831161092b575b5050505050815260200160048201805480602002602001604051908101604052809291908181526020016000905b82821015610a5f578382906000526020600020018054600181600116156101000203166002900480601f016020809104026020016040519081016040528092919081815260200182805460018160011615610100020316600290048015610a4b5780601f10610a2057610100808354040283529160200191610a4b565b820191906000526020600020905b815481529060010190602001808311610a2e57829003601f168201915b5050505050815260200190600101906109a3565b5050505081526020016005820154815260200160068201548152602001600782015481526020016008820160009054906101000a900460ff166006811115610aa357fe5b6006811115610aae57fe5b815250509050919050565b806002600082815260200190815260200160002060070154600260008381526020019081526020016000206006015401421115610af557600080fd5b816003806006811115610b0457fe5b6002600084815260200190815260200160002060080160009054906101000a900460ff166006811115610b3357fe5b14610b3d57600080fd5b836002600082815260200190815260200160002060010160009054906101000a900473ffffffffffffffffffffffffffffffffffffffff1673ffffffffffffffffffffffffffffffffffffffff163373ffffffffffffffffffffffffffffffffffffffff1614610bac57600080fd5b426002600087815260200190815260200160002060060181905550600280600087815260200190815260200160002060080160006101000a81548160ff02191690836006811115610bf957fe5b02179055505050505050565b806000806006811115610c1457fe5b6002600084815260200190815260200160002060080160009054906101000a900460ff166006811115610c4357fe5b14610c4d57600080fd5b826002600082815260200190815260200160002060010160009054906101000a900473ffffffffffffffffffffffffffffffffffffffff1673ffffffffffffffffffffffffffffffffffffffff163373ffffffffffffffffffffffffffffffffffffffff1614610cbc57600080fd5b6000809054906101000a900473ffffffffffffffffffffffffffffffffffffffff1673ffffffffffffffffffffffffffffffffffffffff1663a9059cbb3360028060008981526020019081526020016000206005015481610d1957fe5b046002600089815260200190815260200160002060050154016040518363ffffffff1660e01b8152600401610d4f929190611efa565b602060405180830381600087803b158015610d6957600080fd5b505af1158015610d7d573d6000803e3d6000fd5b505050506040513d601f19601f82011682018060405250810190610da19190611861565b5060016002600086815260200190815260200160002060080160006101000a81548160ff02191690836006811115610dd557fe5b021790555050505050565b6002602052806000526040600020600091509050806000018054600181600116156101000203166002900480601f016020809104026020016040519081016040528092919081815260200182805460018160011615610100020316600290048015610e8c5780601f10610e6157610100808354040283529160200191610e8c565b820191906000526020600020905b815481529060010190602001808311610e6f57829003601f168201915b5050505050908060010160009054906101000a900473ffffffffffffffffffffffffffffffffffffffff16908060020160009054906101000a900473ffffffffffffffffffffffffffffffffffffffff16908060050154908060060154908060070154908060080160009054906101000a900460ff16905087565b8060026000828152602001908152602001600020600701546002600083815260200190815260200160002060060154014211610f4257600080fd5b816002600082815260200190815260200160002060010160009054906101000a900473ffffffffffffffffffffffffffffffffffffffff1673ffffffffffffffffffffffffffffffffffffffff163373ffffffffffffffffffffffffffffffffffffffff1614610fb157600080fd5b6000809054906101000a900473ffffffffffffffffffffffffffffffffffffffff1673ffffffffffffffffffffffffffffffffffffffff1663a9059cbb336002806000888152602001908152602001600020600501548161100e57fe5b046002600088815260200190815260200160002060050154016040518363ffffffff1660e01b8152600401611044929190611efa565b602060405180830381600087803b15801561105e57600080fd5b505af1158015611072573d6000803e3d6000fd5b505050506040513d601f19601f820116820180604052508101906110969190611861565b5060046002600085815260200190815260200160002060080160006101000a81548160ff021916908360068111156110ca57fe5b0217905550505050565b80600260008281526020019081526020016000206007015460026000838152602001908152602001600020600601540142111561111057600080fd5b81600280600681111561111f57fe5b6002600084815260200190815260200160002060080160009054906101000a900460ff16600681111561114e57fe5b1461115857600080fd5b836002600082815260200190815260200160002060020160009054906101000a900473ffffffffffffffffffffffffffffffffffffffff1673ffffffffffffffffffffffffffffffffffffffff163373ffffffffffffffffffffffffffffffffffffffff16146111c757600080fd5b42600260008781526020019081526020016000206006018190555060036002600087815260200190815260200160002060080160006101000a81548160ff0219169083600681111561121557fe5b02179055505050505050565b60015481565b81600080600681111561123657fe5b6002600084815260200190815260200160002060080160009054906101000a900460ff16600681111561126557fe5b1461126f57600080fd5b3373ffffffffffffffffffffffffffffffffffffffff166002600086815260200190815260200160002060010160009054906101000a900473ffffffffffffffffffffffffffffffffffffffff1673ffffffffffffffffffffffffffffffffffffffff1614156112de57600080fd5b60026000858152602001908152602001600020600301339080600181540180825580915050600190039060005260206000200160009091909190916101000a81548173ffffffffffffffffffffffffffffffffffffffff021916908373ffffffffffffffffffffffffffffffffffffffff16021790555060026000858152602001908152602001600020600401839080600181540180825580915050600190039060005260206000200160009091909190915090805190602001906113a49291906116a6565b5050505050565b8060026000828152602001908152602001600020600701546002600083815260200190815260200160002060060154014211156113e757600080fd5b8160038060068111156113f657fe5b6002600084815260200190815260200160002060080160009054906101000a900460ff16600681111561142557fe5b1461142f57600080fd5b836002600082815260200190815260200160002060010160009054906101000a900473ffffffffffffffffffffffffffffffffffffffff1673ffffffffffffffffffffffffffffffffffffffff163373ffffffffffffffffffffffffffffffffffffffff161461149e57600080fd5b6000809054906101000a900473ffffffffffffffffffffffffffffffffffffffff1673ffffffffffffffffffffffffffffffffffffffff1663a9059cbb3360028060008a815260200190815260200160002060050154816114fb57fe5b046040518363ffffffff1660e01b8152600401611519929190611efa565b602060405180830381600087803b15801561153357600080fd5b505af1158015611547573d6000803e3d6000fd5b505050506040513d601f19601f8201168201806040525081019061156b9190611861565b506000809054906101000a900473ffffffffffffffffffffffffffffffffffffffff1673ffffffffffffffffffffffffffffffffffffffff1663a9059cbb6002600088815260200190815260200160002060020160009054906101000a900473ffffffffffffffffffffffffffffffffffffffff1660026000898152602001908152602001600020600501546040518363ffffffff1660e01b8152600401611614929190611f23565b602060405180830381600087803b15801561162e57600080fd5b505af1158015611642573d6000803e3d6000fd5b505050506040513d601f19601f820116820180604052508101906116669190611861565b5060056002600087815260200190815260200160002060080160006101000a81548160ff0219169083600681111561169a57fe5b02179055505050505050565b828054600181600116156101000203166002900490600052602060002090601f016020900481019282601f106116e757805160ff1916838001178555611715565b82800160010185558215611715579182015b828111156117145782518255916020019190600101906116f9565b5b50905061172291906117a9565b5090565b60405180610120016040528060608152602001600073ffffffffffffffffffffffffffffffffffffffff168152602001600073ffffffffffffffffffffffffffffffffffffffff1681526020016060815260200160608152602001600081526020016000815260200160008152602001600060068111156117a357fe5b81525090565b6117cb91905b808211156117c75760008160009055506001016117af565b5090565b90565b6000813590506117dd8161233e565b92915050565b6000815190506117f281612355565b92915050565b600082601f83011261180957600080fd5b813561181c6118178261205c565b61202f565b9150808252602083016020830185838301111561183857600080fd5b611843838284612270565b50505092915050565b60008135905061185b8161236c565b92915050565b60006020828403121561187357600080fd5b6000611881848285016117e3565b91505092915050565b600080600080608085870312156118a057600080fd5b600085013567ffffffffffffffff8111156118ba57600080fd5b6118c6878288016117f8565b94505060206118d78782880161184c565b93505060406118e88782880161184c565b92505060606118f98782880161184c565b91505092959194509250565b60006020828403121561191757600080fd5b60006119258482850161184c565b91505092915050565b6000806040838503121561194157600080fd5b600061194f8582860161184c565b9250506020611960858286016117ce565b9150509250929050565b6000806040838503121561197d57600080fd5b600061198b8582860161184c565b925050602083013567ffffffffffffffff8111156119a857600080fd5b6119b4858286016117f8565b9150509250929050565b60006119ca8383611a0d565b60208301905092915050565b60006119e28383611bf5565b905092915050565b60006119f68383611c67565b905092915050565b611a0781612228565b82525050565b611a16816121cd565b82525050565b611a25816121cd565b82525050565b6000611a36826120e7565b611a408185612152565b9350611a4b83612088565b8060005b83811015611a7c578151611a6388826119be565b9750611a6e8361211e565b925050600181019050611a4f565b5085935050505092915050565b6000611a94826120f2565b611a9e8185612152565b9350611aa983612098565b8060005b83811015611ae157611abe82612300565b611ac888826119be565b9750611ad38361212b565b925050600181019050611aad565b5085935050505092915050565b6000611af9826120fd565b611b038185612163565b935083602082028501611b15856120ad565b8060005b85811015611b515784840389528151611b3285826119d6565b9450611b3d83612138565b925060208a01995050600181019050611b19565b50829750879550505050505092915050565b6000611b6e82612108565b611b788185612163565b935083602082028501611b8a856120bd565b8060005b85811015611bc557848403895281611ba685826119ea565b9450611bb183612145565b925060208a01995050600181019050611b8e565b50829750879550505050505092915050565b611be08161223a565b82525050565b611bef8161223a565b82525050565b6000611c0082612113565b611c0a8185612174565b9350611c1a81856020860161227f565b611c2381612313565b840191505092915050565b6000611c3982612113565b611c438185612185565b9350611c5381856020860161227f565b611c5c81612313565b840191505092915050565b600081546001811660008114611c845760018114611caa57611cee565b607f6002830416611c958187612174565b955060ff198316865260208601935050611cee565b60028204611cb88187612174565b9550611cc3856120d2565b60005b82811015611ce557815481890152600182019150602081019050611cc6565b80880195505050505b505092915050565b6000610120830160008301518482036000860152611d148282611bf5565b9150506020830151611d296020860182611a0d565b506040830151611d3c6040860182611a0d565b5060608301518482036060860152611d548282611a2b565b91505060808301518482036080860152611d6e8282611aee565b91505060a0830151611d8360a0860182611edc565b5060c0830151611d9660c0860182611edc565b5060e0830151611da960e0860182611edc565b50610100830151611dbe610100860182611bd7565b508091505092915050565b6000610120830160008084018583036000870152611de78382611c67565b92505060018401549050611dfa816122b2565b611e076020870182611a0d565b5060028401549050611e18816122b2565b611e256040870182611a0d565b50600384018583036060870152611e3c8382611a89565b925050600484018583036080870152611e558382611b63565b92505060058401549050611e68816122e6565b611e7560a0870182611edc565b5060068401549050611e86816122e6565b611e9360c0870182611edc565b5060078401549050611ea4816122e6565b611eb160e0870182611edc565b5060088401549050611ec2816122cc565b611ed0610100870182611bd7565b50819250505092915050565b611ee58161221e565b82525050565b611ef48161221e565b82525050565b6000604082019050611f0f60008301856119fe565b611f1c6020830184611eeb565b9392505050565b6000604082019050611f386000830185611a1c565b611f456020830184611eeb565b9392505050565b600060e0820190508181036000830152611f66818a611c2e565b9050611f756020830189611a1c565b611f826040830188611a1c565b611f8f6060830187611eeb565b611f9c6080830186611eeb565b611fa960a0830185611eeb565b611fb660c0830184611be6565b98975050505050505050565b60006020820190508181036000830152611fdc8184611cf6565b905092915050565b6000602082019050611ff96000830184611eeb565b92915050565b60006040820190506120146000830185611eeb565b81810360208301526120268184611dc9565b90509392505050565b6000604051905081810181811067ffffffffffffffff8211171561205257600080fd5b8060405250919050565b600067ffffffffffffffff82111561207357600080fd5b601f19601f8301169050602081019050919050565b6000819050602082019050919050565b60008190508160005260206000209050919050565b6000819050602082019050919050565b60008190508160005260206000209050919050565b60008190508160005260206000209050919050565b600081519050919050565b600081549050919050565b600081519050919050565b600081549050919050565b600081519050919050565b6000602082019050919050565b6000600182019050919050565b6000602082019050919050565b6000600182019050919050565b600082825260208201905092915050565b600082825260208201905092915050565b600082825260208201905092915050565b600082825260208201905092915050565b600073ffffffffffffffffffffffffffffffffffffffff82169050919050565b600060ff82169050919050565b6000819050919050565b60006121d8826121fe565b9050919050565b60008115159050919050565b60008190506121f982612331565b919050565b600073ffffffffffffffffffffffffffffffffffffffff82169050919050565b6000819050919050565b60006122338261224c565b9050919050565b6000612245826121eb565b9050919050565b60006122578261225e565b9050919050565b6000612269826121fe565b9050919050565b82818337600083830152505050565b60005b8381101561229d578082015181840152602081019050612282565b838111156122ac576000848401525b50505050565b60006122c56122c083612324565b612196565b9050919050565b60006122df6122da83612324565b6121b6565b9050919050565b60006122f96122f483612324565b6121c3565b9050919050565b600061230c82546122b2565b9050919050565b6000601f19601f8301169050919050565b60008160001c9050919050565b6007811061233b57fe5b50565b612347816121cd565b811461235257600080fd5b50565b61235e816121df565b811461236957600080fd5b50565b6123758161221e565b811461238057600080fd5b5056fea26469706673582212207dd6bd82e10c3ffd4c28ebccecfeddca9fea814dbad4de13aae1d94c560fed3064736f6c634300060a0033",
  "immutableReferences": {},
  "source": "pragma solidity >=0.4.22 <0.7.0;\npragma experimental ABIEncoderV2;\n\ninterface TokenToBounty {\n    function transfer(address _to, uint256 _value) external returns (bool success);\n    function transferFromOrigin(address _to, uint256 _value) external returns (bool success);\n}\n\ncontract Bounty {\n    TokenToBounty token = TokenToBounty(0x241379715A7aB2958976a237c26d2E1986b55A9b);\n    \n     /*\n       Created \n       Cancelled\n       Confirmed\n    A  HunterFinished\n    A HunterOutOfTime \n      Promoterfinished\n      PromoterOutOfTime\n    */\n    enum State { Created, Cancelled, Confirmed,  HunterFinished, HunterOutOfTime, Promoterfinished, PromoterOutOfTime}\n   \n    uint public id = 0;\n    struct TaskMessage \n    {\n        string hash;\n        address promoter;\n        address hunterA;\n        address[] hunters;\n        string[] reasonHashs;\n        uint bonus;\n        uint taskStart;\n        uint taskDeadLine;\n        State state;\n    }\n\n    mapping(uint => TaskMessage) public tasks;\n    \n    // receive() external payable { }\n    \n    // fallback () external payable { }\n    \n    \n    modifier onlyPromoter(uint _uid) {\n        require(msg.sender == tasks[_uid].promoter);\n        _;\n    }\n    \n    modifier onlyhunterA(uint _uid) {\n        require(msg.sender == tasks[_uid].hunterA);\n        _;\n    }\n    \n    modifier inState(uint _uid, State _state) {\n        require(tasks[_uid].state == _state );\n        _;\n    }\n    \n    modifier inTime(uint _uid) {\n        require(now <= tasks[_uid].taskStart + tasks[_uid].taskDeadLine);\n        _;\n    }\n    \n    modifier outOfTime(uint _uid) {\n        require(now > tasks[_uid].taskStart + tasks[_uid].taskDeadLine);\n        _;\n    }\n    \n    event SetTask(uint _uid, TaskMessage _task);\n    \n    //\n    function setTask(string memory _hash, uint _bonus, uint _hour, uint _minunt) \n        public \n    {       \n        id += 1;\n        tasks[id].hash = _hash;\n        tasks[id].promoter = msg.sender;\n        tasks[id].bonus = _bonus;\n        tasks[id].taskDeadLine = _hour * 1 hours + _minunt * 1 minutes;\n        token.transferFromOrigin(address(this), _bonus+_bonus/2);\n        \n        emit SetTask(id, tasks[id]);\n    }\n\n    //\n    function applyTask(uint _uid, string memory _reasonHashs) \n        public\n        inState(_uid, State.Created)\n    {   \n        require(tasks[_uid].promoter != msg.sender);\n        tasks[_uid].hunters.push(msg.sender);\n        tasks[_uid].reasonHashs.push(_reasonHashs);\n    }\n    \n    //\n    function cancelTask(uint _uid)\n        public\n        inState(_uid, State.Created)\n        onlyPromoter(_uid)\n    {\n        token.transfer(msg.sender, tasks[_uid].bonus+tasks[_uid].bonus/2);\n        tasks[_uid].state = State.Cancelled;\n    }\n    \n    //A\n    function confirmHunter(uint _uid, address a)\n        public\n        inState(_uid, State.Created)\n        onlyPromoter(_uid)\n    {\n        tasks[_uid].hunterA = a;\n        tasks[_uid].taskStart = now;\n        tasks[_uid].state = State.Confirmed;\n    }\n    \n    //A\n    function hunterAFinished(uint _uid)\n        public\n        inTime(_uid)\n        inState(_uid, State.Confirmed)\n        onlyhunterA(_uid)\n    {\n        tasks[_uid].taskStart = now;\n        tasks[_uid].state = State.HunterFinished;\n    }\n    \n    //A\n    function hunterAOutOfTime(uint _uid)\n        public\n        outOfTime(_uid)\n        onlyPromoter(_uid)\n    {\n        token.transfer(msg.sender, tasks[_uid].bonus+tasks[_uid].bonus/2);\n        tasks[_uid].state = State.HunterOutOfTime;\n    }\n    \n    //\n    function promoterFinished(uint _uid)\n        public\n        inTime(_uid)\n        inState(_uid, State.HunterFinished)\n        onlyPromoter(_uid)\n    {\n        token.transfer(msg.sender, tasks[_uid].bonus/2);\n        token.transfer(tasks[_uid].hunterA, tasks[_uid].bonus);\n        tasks[_uid].state = State.Promoterfinished;\n    }\n    \n    //\n    function taskFallback(uint _uid)\n        public\n        inTime(_uid)\n        inState(_uid, State.HunterFinished)\n        onlyPromoter(_uid)\n    {\n        tasks[_uid].taskStart = now;\n        tasks[_uid].state = State.Confirmed;\n    }\n    \n    //\n    function promoterOutOfTime(uint _uid)\n        public\n        outOfTime(_uid)\n        inState(_uid, State.HunterFinished)\n        onlyhunterA(_uid)\n    {\n        token.transfer(msg.sender, tasks[_uid].bonus);\n        tasks[_uid].state = State.PromoterOutOfTime;\n    }\n    \n    //\n    function getTask(uint _uid) \n        public \n        view\n        returns (TaskMessage memory) \n    {\n        return (tasks[_uid]);\n    }\n\n}\n\n\n",
  "sourcePath": "D:\\vue-work\\truffle-contract\\contracts\\Bounty.sol",
  "compiler": {
    "name": "solc",
    "version": "0.6.10+commit.00c0fcaf.Emscripten.clang"
  },
  "schemaVersion": "3.2.0",
  "updatedAt": "2020-07-06T00:42:47.471Z",
  "networkType": "ethereum",
  "devdoc": {
    "methods": {}
  },
  "userdoc": {
    "methods": {}
  }
}