{
  "contractName": "Bounty",
  "abi": [
    {
      "inputs": [
        {
          "internalType": "address",
          "name": "elt",
          "type": "address"
        },
        {
          "internalType": "address",
          "name": "proxy",
          "type": "address"
        }
      ],
      "stateMutability": "nonpayable",
      "type": "constructor"
    },
    {
      "anonymous": false,
      "inputs": [
        {
          "indexed": true,
          "internalType": "uint24",
          "name": "uid",
          "type": "uint24"
        },
        {
          "indexed": true,
          "internalType": "address",
          "name": "hunter",
          "type": "address"
        },
        {
          "indexed": false,
          "internalType": "string",
          "name": "hash",
          "type": "string"
        }
      ],
      "name": "ApplyTask",
      "type": "event"
    },
    {
      "anonymous": false,
      "inputs": [
        {
          "indexed": true,
          "internalType": "uint24",
          "name": "uid",
          "type": "uint24"
        },
        {
          "indexed": true,
          "internalType": "address",
          "name": "promoter",
          "type": "address"
        },
        {
          "indexed": false,
          "internalType": "string",
          "name": "hash",
          "type": "string"
        }
      ],
      "name": "CancelTask",
      "type": "event"
    },
    {
      "anonymous": false,
      "inputs": [
        {
          "indexed": true,
          "internalType": "uint24",
          "name": "uid",
          "type": "uint24"
        },
        {
          "indexed": true,
          "internalType": "address",
          "name": "promoter",
          "type": "address"
        },
        {
          "indexed": true,
          "internalType": "address",
          "name": "hunterA",
          "type": "address"
        },
        {
          "indexed": false,
          "internalType": "string",
          "name": "hash",
          "type": "string"
        }
      ],
      "name": "ConfirmHunter",
      "type": "event"
    },
    {
      "anonymous": false,
      "inputs": [
        {
          "indexed": true,
          "internalType": "uint24",
          "name": "uid",
          "type": "uint24"
        },
        {
          "indexed": true,
          "internalType": "address",
          "name": "hunterA",
          "type": "address"
        },
        {
          "indexed": false,
          "internalType": "string",
          "name": "hash",
          "type": "string"
        }
      ],
      "name": "HunterAFinished",
      "type": "event"
    },
    {
      "anonymous": false,
      "inputs": [
        {
          "indexed": true,
          "internalType": "uint24",
          "name": "uid",
          "type": "uint24"
        },
        {
          "indexed": true,
          "internalType": "address",
          "name": "promoter",
          "type": "address"
        },
        {
          "indexed": false,
          "internalType": "string",
          "name": "hash",
          "type": "string"
        }
      ],
      "name": "HunterAOutOfTime",
      "type": "event"
    },
    {
      "anonymous": false,
      "inputs": [
        {
          "indexed": true,
          "internalType": "uint24",
          "name": "uid",
          "type": "uint24"
        },
        {
          "indexed": true,
          "internalType": "address",
          "name": "promoter",
          "type": "address"
        },
        {
          "indexed": false,
          "internalType": "string",
          "name": "hash",
          "type": "string"
        }
      ],
      "name": "PromoterFinished",
      "type": "event"
    },
    {
      "anonymous": false,
      "inputs": [
        {
          "indexed": true,
          "internalType": "uint24",
          "name": "uid",
          "type": "uint24"
        },
        {
          "indexed": true,
          "internalType": "address",
          "name": "hunterA",
          "type": "address"
        },
        {
          "indexed": false,
          "internalType": "string",
          "name": "hash",
          "type": "string"
        }
      ],
      "name": "PromoterOutOfTime",
      "type": "event"
    },
    {
      "anonymous": false,
      "inputs": [
        {
          "indexed": true,
          "internalType": "uint24",
          "name": "uid",
          "type": "uint24"
        },
        {
          "indexed": true,
          "internalType": "address",
          "name": "promoter",
          "type": "address"
        },
        {
          "components": [
            {
              "internalType": "string",
              "name": "hash",
              "type": "string"
            },
            {
              "internalType": "address",
              "name": "promoter",
              "type": "address"
            },
            {
              "internalType": "address",
              "name": "hunterA",
              "type": "address"
            },
            {
              "internalType": "address[]",
              "name": "hunters",
              "type": "address[]"
            },
            {
              "internalType": "string[]",
              "name": "reasonHashs",
              "type": "string[]"
            },
            {
              "internalType": "uint256",
              "name": "bonus",
              "type": "uint256"
            },
            {
              "internalType": "uint256",
              "name": "taskStart",
              "type": "uint256"
            },
            {
              "internalType": "uint256",
              "name": "taskDeadLine",
              "type": "uint256"
            },
            {
              "internalType": "enum Bounty.State",
              "name": "state",
              "type": "uint8"
            }
          ],
          "indexed": false,
          "internalType": "struct Bounty.TaskMessage",
          "name": "itask",
          "type": "tuple"
        }
      ],
      "name": "SetTask",
      "type": "event"
    },
    {
      "anonymous": false,
      "inputs": [
        {
          "indexed": true,
          "internalType": "uint24",
          "name": "uid",
          "type": "uint24"
        },
        {
          "indexed": true,
          "internalType": "address",
          "name": "promoter",
          "type": "address"
        },
        {
          "indexed": false,
          "internalType": "string",
          "name": "hash",
          "type": "string"
        }
      ],
      "name": "TaskFallback",
      "type": "event"
    },
    {
      "inputs": [],
      "name": "fee",
      "outputs": [
        {
          "internalType": "uint8",
          "name": "",
          "type": "uint8"
        }
      ],
      "stateMutability": "view",
      "type": "function",
      "constant": true
    },
    {
      "inputs": [],
      "name": "id",
      "outputs": [
        {
          "internalType": "uint24",
          "name": "",
          "type": "uint24"
        }
      ],
      "stateMutability": "view",
      "type": "function",
      "constant": true
    },
    {
      "inputs": [
        {
          "internalType": "uint24",
          "name": "",
          "type": "uint24"
        }
      ],
      "name": "tasks",
      "outputs": [
        {
          "internalType": "string",
          "name": "hash",
          "type": "string"
        },
        {
          "internalType": "address",
          "name": "promoter",
          "type": "address"
        },
        {
          "internalType": "address",
          "name": "hunterA",
          "type": "address"
        },
        {
          "internalType": "uint256",
          "name": "bonus",
          "type": "uint256"
        },
        {
          "internalType": "uint256",
          "name": "taskStart",
          "type": "uint256"
        },
        {
          "internalType": "uint256",
          "name": "taskDeadLine",
          "type": "uint256"
        },
        {
          "internalType": "enum Bounty.State",
          "name": "state",
          "type": "uint8"
        }
      ],
      "stateMutability": "view",
      "type": "function",
      "constant": true
    },
    {
      "inputs": [
        {
          "internalType": "string",
          "name": "_hash",
          "type": "string"
        },
        {
          "internalType": "uint256",
          "name": "_bonus",
          "type": "uint256"
        },
        {
          "internalType": "uint256",
          "name": "_hour",
          "type": "uint256"
        },
        {
          "internalType": "uint256",
          "name": "_minunt",
          "type": "uint256"
        }
      ],
      "name": "setTask",
      "outputs": [],
      "stateMutability": "nonpayable",
      "type": "function"
    },
    {
      "inputs": [
        {
          "internalType": "uint24",
          "name": "_uid",
          "type": "uint24"
        },
        {
          "internalType": "string",
          "name": "_reasonHashs",
          "type": "string"
        }
      ],
      "name": "applyTask",
      "outputs": [],
      "stateMutability": "nonpayable",
      "type": "function"
    },
    {
      "inputs": [
        {
          "internalType": "uint24",
          "name": "_uid",
          "type": "uint24"
        }
      ],
      "name": "cancelTask",
      "outputs": [],
      "stateMutability": "nonpayable",
      "type": "function"
    },
    {
      "inputs": [
        {
          "internalType": "uint24",
          "name": "_uid",
          "type": "uint24"
        },
        {
          "internalType": "address",
          "name": "a",
          "type": "address"
        }
      ],
      "name": "confirmHunter",
      "outputs": [],
      "stateMutability": "nonpayable",
      "type": "function"
    },
    {
      "inputs": [
        {
          "internalType": "uint24",
          "name": "_uid",
          "type": "uint24"
        }
      ],
      "name": "hunterAFinished",
      "outputs": [],
      "stateMutability": "nonpayable",
      "type": "function"
    },
    {
      "inputs": [
        {
          "internalType": "uint24",
          "name": "_uid",
          "type": "uint24"
        }
      ],
      "name": "hunterAOutOfTime",
      "outputs": [],
      "stateMutability": "nonpayable",
      "type": "function"
    },
    {
      "inputs": [
        {
          "internalType": "uint24",
          "name": "_uid",
          "type": "uint24"
        }
      ],
      "name": "promoterFinished",
      "outputs": [],
      "stateMutability": "nonpayable",
      "type": "function"
    },
    {
      "inputs": [
        {
          "internalType": "uint24",
          "name": "_uid",
          "type": "uint24"
        }
      ],
      "name": "taskFallback",
      "outputs": [],
      "stateMutability": "nonpayable",
      "type": "function"
    },
    {
      "inputs": [
        {
          "internalType": "uint24",
          "name": "_uid",
          "type": "uint24"
        }
      ],
      "name": "promoterOutOfTime",
      "outputs": [],
      "stateMutability": "nonpayable",
      "type": "function"
    },
    {
      "inputs": [
        {
          "internalType": "uint24",
          "name": "_uid",
          "type": "uint24"
        }
      ],
      "name": "getTask",
      "outputs": [
        {
          "components": [
            {
              "internalType": "string",
              "name": "hash",
              "type": "string"
            },
            {
              "internalType": "address",
              "name": "promoter",
              "type": "address"
            },
            {
              "internalType": "address",
              "name": "hunterA",
              "type": "address"
            },
            {
              "internalType": "address[]",
              "name": "hunters",
              "type": "address[]"
            },
            {
              "internalType": "string[]",
              "name": "reasonHashs",
              "type": "string[]"
            },
            {
              "internalType": "uint256",
              "name": "bonus",
              "type": "uint256"
            },
            {
              "internalType": "uint256",
              "name": "taskStart",
              "type": "uint256"
            },
            {
              "internalType": "uint256",
              "name": "taskDeadLine",
              "type": "uint256"
            },
            {
              "internalType": "enum Bounty.State",
              "name": "state",
              "type": "uint8"
            }
          ],
          "internalType": "struct Bounty.TaskMessage",
          "name": "",
          "type": "tuple"
        }
      ],
      "stateMutability": "view",
      "type": "function",
      "constant": true
    }
  ],
  "bytecode": "0x60806040526000600160146101000a81548162ffffff021916908362ffffff1602179055506005600160176101000a81548160ff021916908360ff160217905550739fc10900cf34636330d05e9c6ca976b918627023600260006101000a81548173ffffffffffffffffffffffffffffffffffffffff021916908373ffffffffffffffffffffffffffffffffffffffff160217905550348015620000a257600080fd5b50604051620030a6380380620030a68339818101604052810190620000c8919062000168565b816000806101000a81548173ffffffffffffffffffffffffffffffffffffffff021916908373ffffffffffffffffffffffffffffffffffffffff16021790555080600160006101000a81548173ffffffffffffffffffffffffffffffffffffffff021916908373ffffffffffffffffffffffffffffffffffffffff1602179055505050620001f7565b6000815190506200016281620001dd565b92915050565b600080604083850312156200017c57600080fd5b60006200018c8582860162000151565b92505060206200019f8582860162000151565b9150509250929050565b6000620001b682620001bd565b9050919050565b600073ffffffffffffffffffffffffffffffffffffffff82169050919050565b620001e881620001a9565b8114620001f457600080fd5b50565b612e9f80620002076000396000f3fe608060405234801561001057600080fd5b50600436106100cf5760003560e01c8063346339d91161008c578063b3e692f411610066578063b3e692f4146101ec578063b6d403f614610208578063b797e8b714610224578063ddca3f4314610254576100cf565b8063346339d9146101965780638570cf8d146101b2578063af640d0f146101ce576100cf565b806303c56121146100d4578063047e137e146100f05780630559dd4e14610126578063159f260e1461014257806319a139261461015e5780631f069e331461017a575b600080fd5b6100ee60048036038101906100e99190612261565b610272565b005b61010a600480360381019061010591906122dc565b610524565b60405161011d97969594939291906129d0565b60405180910390f35b610140600480360381019061013b91906122dc565b61064b565b005b61015c600480360381019061015791906122dc565b610b11565b005b610178600480360381019061017391906122dc565b610e95565b005b610194600480360381019061018f91906122dc565b61123f565b005b6101b060048036038101906101ab9190612341565b61143b565b005b6101cc60048036038101906101c79190612305565b61165a565b005b6101d661187c565b6040516101e39190612aac565b60405180910390f35b610206600480360381019061020191906122dc565b611891565b005b610222600480360381019061021d91906122dc565b611a8c565b005b61023e600480360381019061023991906122dc565b611d0d565b60405161024b9190612a68565b60405180910390f35b61025c612055565b6040516102699190612ac7565b60405180910390f35b60018060148282829054906101000a900462ffffff160192506101000a81548162ffffff021916908362ffffff1602179055508360036000600160149054906101000a900462ffffff1662ffffff1662ffffff16815260200190815260200160002060000190805190602001906102ea929190612068565b503360036000600160149054906101000a900462ffffff1662ffffff1662ffffff16815260200190815260200160002060010160006101000a81548173ffffffffffffffffffffffffffffffffffffffff021916908373ffffffffffffffffffffffffffffffffffffffff1602179055508260036000600160149054906101000a900462ffffff1662ffffff1662ffffff16815260200190815260200160002060050181905550603c8102610e1083020160036000600160149054906101000a900462ffffff1662ffffff1662ffffff16815260200190815260200160002060070181905550600160009054906101000a900473ffffffffffffffffffffffffffffffffffffffff1673ffffffffffffffffffffffffffffffffffffffff1663a31fe347306002868161041957fe5b0486016040518363ffffffff1660e01b81526004016104399291906129a7565b602060405180830381600087803b15801561045357600080fd5b505af1158015610467573d6000803e3d6000fd5b505050506040513d601f19601f8201168201806040525081019061048b9190612238565b503373ffffffffffffffffffffffffffffffffffffffff16600160149054906101000a900462ffffff1662ffffff167f56f97dc41dc9ec240a7e9ea522e52d5b171b50cc7a03db8025ae128ba11539fe60036000600160149054906101000a900462ffffff1662ffffff1662ffffff1681526020019081526020016000206040516105169190612a8a565b60405180910390a350505050565b6003602052806000526040600020600091509050806000018054600181600116156101000203166002900480601f0160208091040260200160405190810160405280929190818152602001828054600181600116156101000203166002900480156105d05780601f106105a5576101008083540402835291602001916105d0565b820191906000526020600020905b8154815290600101906020018083116105b357829003601f168201915b5050505050908060010160009054906101000a900473ffffffffffffffffffffffffffffffffffffffff16908060020160009054906101000a900473ffffffffffffffffffffffffffffffffffffffff16908060050154908060060154908060070154908060080160009054906101000a900460ff16905087565b80600360008262ffffff1662ffffff16815260200190815260200160002060070154600360008362ffffff1662ffffff168152602001908152602001600020600601540142111561069b57600080fd5b8160038060068111156106aa57fe5b600360008462ffffff1662ffffff16815260200190815260200160002060080160009054906101000a900460ff1660068111156106e357fe5b146106ed57600080fd5b83600360008262ffffff1662ffffff16815260200190815260200160002060010160009054906101000a900473ffffffffffffffffffffffffffffffffffffffff1673ffffffffffffffffffffffffffffffffffffffff163373ffffffffffffffffffffffffffffffffffffffff161461076657600080fd5b60006103e86005600360008962ffffff1662ffffff16815260200190815260200160002060050154028161079657fe5b0490506000809054906101000a900473ffffffffffffffffffffffffffffffffffffffff1673ffffffffffffffffffffffffffffffffffffffff1663a9059cbb33836002600360008c62ffffff1662ffffff168152602001908152602001600020600501548161080257fe5b04036040518363ffffffff1660e01b815260040161082192919061297e565b602060405180830381600087803b15801561083b57600080fd5b505af115801561084f573d6000803e3d6000fd5b505050506040513d601f19601f820116820180604052508101906108739190612238565b506000809054906101000a900473ffffffffffffffffffffffffffffffffffffffff1673ffffffffffffffffffffffffffffffffffffffff1663a9059cbb600260009054906101000a900473ffffffffffffffffffffffffffffffffffffffff16836040518363ffffffff1660e01b81526004016108f29291906129a7565b602060405180830381600087803b15801561090c57600080fd5b505af1158015610920573d6000803e3d6000fd5b505050506040513d601f19601f820116820180604052508101906109449190612238565b506000809054906101000a900473ffffffffffffffffffffffffffffffffffffffff1673ffffffffffffffffffffffffffffffffffffffff1663a9059cbb600360008962ffffff1662ffffff16815260200190815260200160002060020160009054906101000a900473ffffffffffffffffffffffffffffffffffffffff16600360008a62ffffff1662ffffff168152602001908152602001600020600501546040518363ffffffff1660e01b8152600401610a019291906129a7565b602060405180830381600087803b158015610a1b57600080fd5b505af1158015610a2f573d6000803e3d6000fd5b505050506040513d601f19601f82011682018060405250810190610a539190612238565b506005600360008862ffffff1662ffffff16815260200190815260200160002060080160006101000a81548160ff02191690836006811115610a9157fe5b02179055503373ffffffffffffffffffffffffffffffffffffffff168662ffffff167f5c439357da271d88e5f86997f15b910a501258f69d068ec0266f1187fcd0d9a1600360008a62ffffff1662ffffff168152602001908152602001600020600001604051610b019190612a46565b60405180910390a3505050505050565b80600360008262ffffff1662ffffff16815260200190815260200160002060070154600360008362ffffff1662ffffff16815260200190815260200160002060060154014211610b6057600080fd5b81600360008262ffffff1662ffffff16815260200190815260200160002060010160009054906101000a900473ffffffffffffffffffffffffffffffffffffffff1673ffffffffffffffffffffffffffffffffffffffff163373ffffffffffffffffffffffffffffffffffffffff1614610bd957600080fd5b60006103e86005600360008762ffffff1662ffffff168152602001908152602001600020600501540281610c0957fe5b0490506000809054906101000a900473ffffffffffffffffffffffffffffffffffffffff1673ffffffffffffffffffffffffffffffffffffffff1663a9059cbb33836002600360008a62ffffff1662ffffff1681526020019081526020016000206005015481610c7557fe5b04600360008a62ffffff1662ffffff1681526020019081526020016000206005015401036040518363ffffffff1660e01b8152600401610cb692919061297e565b602060405180830381600087803b158015610cd057600080fd5b505af1158015610ce4573d6000803e3d6000fd5b505050506040513d601f19601f82011682018060405250810190610d089190612238565b506000809054906101000a900473ffffffffffffffffffffffffffffffffffffffff1673ffffffffffffffffffffffffffffffffffffffff1663a9059cbb600260009054906101000a900473ffffffffffffffffffffffffffffffffffffffff16836040518363ffffffff1660e01b8152600401610d879291906129a7565b602060405180830381600087803b158015610da157600080fd5b505af1158015610db5573d6000803e3d6000fd5b505050506040513d601f19601f82011682018060405250810190610dd99190612238565b506004600360008662ffffff1662ffffff16815260200190815260200160002060080160006101000a81548160ff02191690836006811115610e1757fe5b02179055503373ffffffffffffffffffffffffffffffffffffffff168462ffffff167fc6b218594e043b20e14f1f2a788855118b9245a28879fa7b3e92526804a72a05600360008862ffffff1662ffffff168152602001908152602001600020600001604051610e879190612a46565b60405180910390a350505050565b80600360008262ffffff1662ffffff16815260200190815260200160002060070154600360008362ffffff1662ffffff16815260200190815260200160002060060154014211610ee457600080fd5b816003806006811115610ef357fe5b600360008462ffffff1662ffffff16815260200190815260200160002060080160009054906101000a900460ff166006811115610f2c57fe5b14610f3657600080fd5b83600360008262ffffff1662ffffff16815260200190815260200160002060020160009054906101000a900473ffffffffffffffffffffffffffffffffffffffff1673ffffffffffffffffffffffffffffffffffffffff163373ffffffffffffffffffffffffffffffffffffffff1614610faf57600080fd5b60006103e86005600360008962ffffff1662ffffff168152602001908152602001600020600501540281610fdf57fe5b0490506000809054906101000a900473ffffffffffffffffffffffffffffffffffffffff1673ffffffffffffffffffffffffffffffffffffffff1663a9059cbb600260009054906101000a900473ffffffffffffffffffffffffffffffffffffffff16836040518363ffffffff1660e01b81526004016110609291906129a7565b602060405180830381600087803b15801561107a57600080fd5b505af115801561108e573d6000803e3d6000fd5b505050506040513d601f19601f820116820180604052508101906110b29190612238565b506000809054906101000a900473ffffffffffffffffffffffffffffffffffffffff1673ffffffffffffffffffffffffffffffffffffffff1663a9059cbb33600360008a62ffffff1662ffffff168152602001908152602001600020600501546040518363ffffffff1660e01b815260040161112f92919061297e565b602060405180830381600087803b15801561114957600080fd5b505af115801561115d573d6000803e3d6000fd5b505050506040513d601f19601f820116820180604052508101906111819190612238565b506006600360008862ffffff1662ffffff16815260200190815260200160002060080160006101000a81548160ff021916908360068111156111bf57fe5b02179055503373ffffffffffffffffffffffffffffffffffffffff168662ffffff167fbfbe5e5e999f445487284b8e6a9dca627897fa160f0ae43bbcecc3b960380b89600360008a62ffffff1662ffffff16815260200190815260200160002060000160405161122f9190612a46565b60405180910390a3505050505050565b80600360008262ffffff1662ffffff16815260200190815260200160002060070154600360008362ffffff1662ffffff168152602001908152602001600020600601540142111561128f57600080fd5b81600380600681111561129e57fe5b600360008462ffffff1662ffffff16815260200190815260200160002060080160009054906101000a900460ff1660068111156112d757fe5b146112e157600080fd5b83600360008262ffffff1662ffffff16815260200190815260200160002060010160009054906101000a900473ffffffffffffffffffffffffffffffffffffffff1673ffffffffffffffffffffffffffffffffffffffff163373ffffffffffffffffffffffffffffffffffffffff161461135a57600080fd5b42600360008762ffffff1662ffffff168152602001908152602001600020600601819055506002600360008762ffffff1662ffffff16815260200190815260200160002060080160006101000a81548160ff021916908360068111156113bc57fe5b02179055503373ffffffffffffffffffffffffffffffffffffffff168562ffffff167f63a6ab42695c3104c58ee82ad3ebbe3a9061295875123b1815823d7bce162a56600360008962ffffff1662ffffff16815260200190815260200160002060000160405161142c9190612a46565b60405180910390a35050505050565b81600080600681111561144a57fe5b600360008462ffffff1662ffffff16815260200190815260200160002060080160009054906101000a900460ff16600681111561148357fe5b1461148d57600080fd5b3373ffffffffffffffffffffffffffffffffffffffff16600360008662ffffff1662ffffff16815260200190815260200160002060010160009054906101000a900473ffffffffffffffffffffffffffffffffffffffff1673ffffffffffffffffffffffffffffffffffffffff16141561150657600080fd5b600360008562ffffff1662ffffff168152602001908152602001600020600301339080600181540180825580915050600190039060005260206000200160009091909190916101000a81548173ffffffffffffffffffffffffffffffffffffffff021916908373ffffffffffffffffffffffffffffffffffffffff160217905550600360008562ffffff1662ffffff168152602001908152602001600020600401839080600181540180825580915050600190039060005260206000200160009091909190915090805190602001906115e0929190612068565b503373ffffffffffffffffffffffffffffffffffffffff168462ffffff167f6c51084b03a1b8bf8a880b3b0b2b7d2faa8ac686dc8eea82f1c671e44931ae16600360008862ffffff1662ffffff16815260200190815260200160002060000160405161164c9190612a46565b60405180910390a350505050565b81600080600681111561166957fe5b600360008462ffffff1662ffffff16815260200190815260200160002060080160009054906101000a900460ff1660068111156116a257fe5b146116ac57600080fd5b83600360008262ffffff1662ffffff16815260200190815260200160002060010160009054906101000a900473ffffffffffffffffffffffffffffffffffffffff1673ffffffffffffffffffffffffffffffffffffffff163373ffffffffffffffffffffffffffffffffffffffff161461172557600080fd5b83600360008762ffffff1662ffffff16815260200190815260200160002060020160006101000a81548173ffffffffffffffffffffffffffffffffffffffff021916908373ffffffffffffffffffffffffffffffffffffffff16021790555042600360008762ffffff1662ffffff168152602001908152602001600020600601819055506002600360008762ffffff1662ffffff16815260200190815260200160002060080160006101000a81548160ff021916908360068111156117e657fe5b02179055508373ffffffffffffffffffffffffffffffffffffffff163373ffffffffffffffffffffffffffffffffffffffff168662ffffff167fcb3c1d83e946b622a9dc2c79b9ca276065f2bd35ff1a39124d0b18afef054962600360008a62ffffff1662ffffff16815260200190815260200160002060000160405161186d9190612a46565b60405180910390a45050505050565b600160149054906101000a900462ffffff1681565b80600360008262ffffff1662ffffff16815260200190815260200160002060070154600360008362ffffff1662ffffff16815260200190815260200160002060060154014211156118e157600080fd5b8160028060068111156118f057fe5b600360008462ffffff1662ffffff16815260200190815260200160002060080160009054906101000a900460ff16600681111561192957fe5b1461193357600080fd5b83600360008262ffffff1662ffffff16815260200190815260200160002060020160009054906101000a900473ffffffffffffffffffffffffffffffffffffffff1673ffffffffffffffffffffffffffffffffffffffff163373ffffffffffffffffffffffffffffffffffffffff16146119ac57600080fd5b42600360008762ffffff1662ffffff1681526020019081526020016000206006018190555060038060008762ffffff1662ffffff16815260200190815260200160002060080160006101000a81548160ff02191690836006811115611a0d57fe5b02179055503373ffffffffffffffffffffffffffffffffffffffff168562ffffff167fe71f21fd97c0eca912f02b30fa5e9beb0b4eb9bbf0b6ef25bcc5f813f49c9782600360008962ffffff1662ffffff168152602001908152602001600020600001604051611a7d9190612a46565b60405180910390a35050505050565b806000806006811115611a9b57fe5b600360008462ffffff1662ffffff16815260200190815260200160002060080160009054906101000a900460ff166006811115611ad457fe5b14611ade57600080fd5b82600360008262ffffff1662ffffff16815260200190815260200160002060010160009054906101000a900473ffffffffffffffffffffffffffffffffffffffff1673ffffffffffffffffffffffffffffffffffffffff163373ffffffffffffffffffffffffffffffffffffffff1614611b5757600080fd5b6000809054906101000a900473ffffffffffffffffffffffffffffffffffffffff1673ffffffffffffffffffffffffffffffffffffffff1663a9059cbb336002600360008962ffffff1662ffffff1681526020019081526020016000206005015481611bbf57fe5b04600360008962ffffff1662ffffff16815260200190815260200160002060050154016040518363ffffffff1660e01b8152600401611bff92919061297e565b602060405180830381600087803b158015611c1957600080fd5b505af1158015611c2d573d6000803e3d6000fd5b505050506040513d601f19601f82011682018060405250810190611c519190612238565b506001600360008662ffffff1662ffffff16815260200190815260200160002060080160006101000a81548160ff02191690836006811115611c8f57fe5b02179055503373ffffffffffffffffffffffffffffffffffffffff168462ffffff167fd5b852aafdd411b4eae39e9dc5f67072cf8294994e209c56affe08271af36dc5600360008862ffffff1662ffffff168152602001908152602001600020600001604051611cff9190612a46565b60405180910390a350505050565b611d156120e8565b600360008362ffffff1662ffffff16815260200190815260200160002060405180610120016040529081600082018054600181600116156101000203166002900480601f016020809104026020016040519081016040528092919081815260200182805460018160011615610100020316600290048015611dd75780601f10611dac57610100808354040283529160200191611dd7565b820191906000526020600020905b815481529060010190602001808311611dba57829003601f168201915b505050505081526020016001820160009054906101000a900473ffffffffffffffffffffffffffffffffffffffff1673ffffffffffffffffffffffffffffffffffffffff1673ffffffffffffffffffffffffffffffffffffffff1681526020016002820160009054906101000a900473ffffffffffffffffffffffffffffffffffffffff1673ffffffffffffffffffffffffffffffffffffffff1673ffffffffffffffffffffffffffffffffffffffff16815260200160038201805480602002602001604051908101604052809291908181526020018280548015611f1157602002820191906000526020600020905b8160009054906101000a900473ffffffffffffffffffffffffffffffffffffffff1673ffffffffffffffffffffffffffffffffffffffff1681526020019060010190808311611ec7575b5050505050815260200160048201805480602002602001604051908101604052809291908181526020016000905b82821015611ffb578382906000526020600020018054600181600116156101000203166002900480601f016020809104026020016040519081016040528092919081815260200182805460018160011615610100020316600290048015611fe75780601f10611fbc57610100808354040283529160200191611fe7565b820191906000526020600020905b815481529060010190602001808311611fca57829003601f168201915b505050505081526020019060010190611f3f565b5050505081526020016005820154815260200160068201548152602001600782015481526020016008820160009054906101000a900460ff16600681111561203f57fe5b600681111561204a57fe5b815250509050919050565b600160179054906101000a900460ff1681565b828054600181600116156101000203166002900490600052602060002090601f016020900481019282601f106120a957805160ff19168380011785556120d7565b828001600101855582156120d7579182015b828111156120d65782518255916020019190600101906120bb565b5b5090506120e4919061216b565b5090565b60405180610120016040528060608152602001600073ffffffffffffffffffffffffffffffffffffffff168152602001600073ffffffffffffffffffffffffffffffffffffffff16815260200160608152602001606081526020016000815260200160008152602001600081526020016000600681111561216557fe5b81525090565b61218d91905b80821115612189576000816000905550600101612171565b5090565b90565b60008135905061219f81612e0d565b92915050565b6000815190506121b481612e24565b92915050565b600082601f8301126121cb57600080fd5b81356121de6121d982612b0f565b612ae2565b915080825260208301602083018583830111156121fa57600080fd5b612205838284612d3f565b50505092915050565b60008135905061221d81612e3b565b92915050565b60008135905061223281612e52565b92915050565b60006020828403121561224a57600080fd5b6000612258848285016121a5565b91505092915050565b6000806000806080858703121561227757600080fd5b600085013567ffffffffffffffff81111561229157600080fd5b61229d878288016121ba565b94505060206122ae87828801612223565b93505060406122bf87828801612223565b92505060606122d087828801612223565b91505092959194509250565b6000602082840312156122ee57600080fd5b60006122fc8482850161220e565b91505092915050565b6000806040838503121561231857600080fd5b60006123268582860161220e565b925050602061233785828601612190565b9150509250929050565b6000806040838503121561235457600080fd5b60006123628582860161220e565b925050602083013567ffffffffffffffff81111561237f57600080fd5b61238b858286016121ba565b9150509250929050565b60006123a183836123e4565b60208301905092915050565b60006123b983836125cc565b905092915050565b60006123cd838361263e565b905092915050565b6123de81612cf7565b82525050565b6123ed81612c80565b82525050565b6123fc81612c80565b82525050565b600061240d82612b9a565b6124178185612c05565b935061242283612b3b565b8060005b8381101561245357815161243a8882612395565b975061244583612bd1565b925050600181019050612426565b5085935050505092915050565b600061246b82612ba5565b6124758185612c05565b935061248083612b4b565b8060005b838110156124b85761249582612dcf565b61249f8882612395565b97506124aa83612bde565b925050600181019050612484565b5085935050505092915050565b60006124d082612bb0565b6124da8185612c16565b9350836020820285016124ec85612b60565b8060005b85811015612528578484038952815161250985826123ad565b945061251483612beb565b925060208a019950506001810190506124f0565b50829750879550505050505092915050565b600061254582612bbb565b61254f8185612c16565b93508360208202850161256185612b70565b8060005b8581101561259c5784840389528161257d85826123c1565b945061258883612bf8565b925060208a01995050600181019050612565565b50829750879550505050505092915050565b6125b781612d09565b82525050565b6125c681612d09565b82525050565b60006125d782612bc6565b6125e18185612c27565b93506125f1818560208601612d4e565b6125fa81612de2565b840191505092915050565b600061261082612bc6565b61261a8185612c38565b935061262a818560208601612d4e565b61263381612de2565b840191505092915050565b60008154600181166000811461265b5760018114612681576126c5565b607f600283041661266c8187612c27565b955060ff1983168652602086019350506126c5565b6002820461268f8187612c27565b955061269a85612b85565b60005b828110156126bc5781548189015260018201915060208101905061269d565b80880195505050505b505092915050565b6000815460018116600081146126ea576001811461271057612754565b607f60028304166126fb8187612c38565b955060ff198316865260208601935050612754565b6002820461271e8187612c38565b955061272985612b85565b60005b8281101561274b5781548189015260018201915060208101905061272c565b80880195505050505b505092915050565b600061012083016000830151848203600086015261277a82826125cc565b915050602083015161278f60208601826123e4565b5060408301516127a260408601826123e4565b50606083015184820360608601526127ba8282612402565b915050608083015184820360808601526127d482826124c5565b91505060a08301516127e960a0860182612951565b5060c08301516127fc60c0860182612951565b5060e083015161280f60e0860182612951565b506101008301516128246101008601826125ae565b508091505092915050565b600061012083016000808401858303600087015261284d838261263e565b9250506001840154905061286081612d81565b61286d60208701826123e4565b506002840154905061287e81612d81565b61288b60408701826123e4565b506003840185830360608701526128a28382612460565b9250506004840185830360808701526128bb838261253a565b925050600584015490506128ce81612db5565b6128db60a0870182612951565b50600684015490506128ec81612db5565b6128f960c0870182612951565b506007840154905061290a81612db5565b61291760e0870182612951565b506008840154905061292881612d9b565b6129366101008701826125ae565b50819250505092915050565b61294b81612cd1565b82525050565b61295a81612ce0565b82525050565b61296981612ce0565b82525050565b61297881612cea565b82525050565b600060408201905061299360008301856123d5565b6129a06020830184612960565b9392505050565b60006040820190506129bc60008301856123f3565b6129c96020830184612960565b9392505050565b600060e08201905081810360008301526129ea818a612605565b90506129f960208301896123f3565b612a0660408301886123f3565b612a136060830187612960565b612a206080830186612960565b612a2d60a0830185612960565b612a3a60c08301846125bd565b98975050505050505050565b60006020820190508181036000830152612a6081846126cd565b905092915050565b60006020820190508181036000830152612a82818461275c565b905092915050565b60006020820190508181036000830152612aa4818461282f565b905092915050565b6000602082019050612ac16000830184612942565b92915050565b6000602082019050612adc600083018461296f565b92915050565b6000604051905081810181811067ffffffffffffffff82111715612b0557600080fd5b8060405250919050565b600067ffffffffffffffff821115612b2657600080fd5b601f19601f8301169050602081019050919050565b6000819050602082019050919050565b60008190508160005260206000209050919050565b6000819050602082019050919050565b60008190508160005260206000209050919050565b60008190508160005260206000209050919050565b600081519050919050565b600081549050919050565b600081519050919050565b600081549050919050565b600081519050919050565b6000602082019050919050565b6000600182019050919050565b6000602082019050919050565b6000600182019050919050565b600082825260208201905092915050565b600082825260208201905092915050565b600082825260208201905092915050565b600082825260208201905092915050565b600073ffffffffffffffffffffffffffffffffffffffff82169050919050565b600060ff82169050919050565b6000819050919050565b6000612c8b82612cb1565b9050919050565b60008115159050919050565b6000819050612cac82612e00565b919050565b600073ffffffffffffffffffffffffffffffffffffffff82169050919050565b600062ffffff82169050919050565b6000819050919050565b600060ff82169050919050565b6000612d0282612d1b565b9050919050565b6000612d1482612c9e565b9050919050565b6000612d2682612d2d565b9050919050565b6000612d3882612cb1565b9050919050565b82818337600083830152505050565b60005b83811015612d6c578082015181840152602081019050612d51565b83811115612d7b576000848401525b50505050565b6000612d94612d8f83612df3565b612c49565b9050919050565b6000612dae612da983612df3565b612c69565b9050919050565b6000612dc8612dc383612df3565b612c76565b9050919050565b6000612ddb8254612d81565b9050919050565b6000601f19601f8301169050919050565b60008160001c9050919050565b60078110612e0a57fe5b50565b612e1681612c80565b8114612e2157600080fd5b50565b612e2d81612c92565b8114612e3857600080fd5b50565b612e4481612cd1565b8114612e4f57600080fd5b50565b612e5b81612ce0565b8114612e6657600080fd5b5056fea264697066735822122008b9452b4a307baadc86b07305914d0bcb189d455c1f97d525ad463ae9fefaa664736f6c634300060a0033",
  "immutableReferences": {},
  "source": "pragma solidity >=0.4.22 <0.7.0;\npragma experimental ABIEncoderV2;\n\ninterface TokenToBounty {\n    function transfer(address _to, uint256 _value) external returns (bool success);\n}\n\ninterface TokenProxyToBounty {\n    function transferFromProxy(address recipient, uint256 amount) external returns (bool);\n}\n\ncontract Bounty {\n    TokenToBounty token;\n    TokenProxyToBounty tokenproxy;\n\n    constructor(address elt, address proxy) public {\n        token = TokenToBounty(elt);\n        tokenproxy = TokenProxyToBounty(proxy);\n    }\n    \n     /*\n       Created \n       Cancelled\n       Confirmed\n    A  HunterFinished\n    A HunterOutOfTime \n      Promoterfinished\n      PromoterOutOfTime\n    */\n    enum State { Created, Cancelled, Confirmed,  HunterFinished, HunterOutOfTime, Promoterfinished, PromoterOutOfTime}\n   \n    uint24 public id = 0;\n    uint8 public fee = 5;\n    address feeTo = 0x9fc10900cF34636330D05e9c6CA976b918627023;\n    struct TaskMessage \n    {\n        string hash;\n        address promoter;\n        address hunterA;\n        address[] hunters;\n        string[] reasonHashs;\n        uint bonus;\n        uint taskStart;\n        uint taskDeadLine;\n        State state;\n    }\n\n    mapping(uint24 => TaskMessage) public tasks;\n       \n    \n    modifier onlyPromoter(uint24 _uid) {\n        require(msg.sender == tasks[_uid].promoter);\n        _;\n    }\n    \n    modifier onlyhunterA(uint24 _uid) {\n        require(msg.sender == tasks[_uid].hunterA);\n        _;\n    }\n    \n    modifier inState(uint24 _uid, State _state) {\n        require(tasks[_uid].state == _state );\n        _;\n    }\n    \n    modifier inTime(uint24 _uid) {\n        require(now <= tasks[_uid].taskStart + tasks[_uid].taskDeadLine);\n        _;\n    }\n    \n    modifier outOfTime(uint24 _uid) {\n        require(now > tasks[_uid].taskStart + tasks[_uid].taskDeadLine);\n        _;\n    }\n    \n    //\n    event SetTask(uint24 indexed uid, address indexed promoter, TaskMessage itask);\n    event ApplyTask(uint24 indexed uid, address indexed hunter, string hash);\n    event CancelTask(uint24 indexed uid, address indexed promoter, string hash);\n    event ConfirmHunter(uint24 indexed uid, address indexed promoter, address indexed hunterA, string hash);\n    event HunterAFinished(uint24 indexed uid, address indexed hunterA, string hash);\n    event HunterAOutOfTime(uint24 indexed uid, address indexed promoter, string hash);\n    event PromoterFinished(uint24 indexed uid, address indexed promoter, string hash);\n    event TaskFallback(uint24 indexed uid, address indexed promoter, string hash);\n    event PromoterOutOfTime(uint24 indexed uid, address indexed hunterA, string hash);\n    \n    \n    //\n    function setTask(string memory _hash, uint _bonus, uint _hour, uint _minunt) \n        public \n    {       \n        id += 1;\n        tasks[id].hash = _hash;\n        tasks[id].promoter = msg.sender;\n        tasks[id].bonus = _bonus;\n        tasks[id].taskDeadLine = _hour * 1 hours + _minunt * 1 minutes;\n        tokenproxy.transferFromProxy(address(this), _bonus+_bonus/2);\n        emit SetTask(id, msg.sender, tasks[id]);\n    }\n\n    //\n    function applyTask(uint24 _uid, string memory _reasonHashs) \n        public\n        inState(_uid, State.Created)\n    {   \n        require(tasks[_uid].promoter != msg.sender);\n        tasks[_uid].hunters.push(msg.sender);\n        tasks[_uid].reasonHashs.push(_reasonHashs);\n        emit ApplyTask(_uid, msg.sender, tasks[_uid].hash);\n    }\n    \n    //\n    function cancelTask(uint24 _uid)\n        public\n        inState(_uid, State.Created)\n        onlyPromoter(_uid)\n    {\n        token.transfer(msg.sender, tasks[_uid].bonus+tasks[_uid].bonus/2);\n        tasks[_uid].state = State.Cancelled;\n        emit CancelTask(_uid, msg.sender, tasks[_uid].hash);\n    }\n    \n    //A\n    function confirmHunter(uint24 _uid, address a)\n        public\n        inState(_uid, State.Created)\n        onlyPromoter(_uid)\n    {\n        tasks[_uid].hunterA = a;\n        tasks[_uid].taskStart = now;\n        tasks[_uid].state = State.Confirmed;\n        emit ConfirmHunter(_uid, msg.sender, a, tasks[_uid].hash);\n    }\n    \n    //A\n    function hunterAFinished(uint24 _uid)\n        public\n        inTime(_uid)\n        inState(_uid, State.Confirmed)\n        onlyhunterA(_uid)\n    {\n        tasks[_uid].taskStart = now;\n        tasks[_uid].state = State.HunterFinished;\n        emit HunterAFinished(_uid, msg.sender, tasks[_uid].hash);\n    }\n    \n    //A,\n    function hunterAOutOfTime(uint24 _uid)\n        public\n        outOfTime(_uid)\n        onlyPromoter(_uid)\n    {\n        uint feeAmount = tasks[_uid].bonus * 5 / 1000;\n        token.transfer(msg.sender, tasks[_uid].bonus+tasks[_uid].bonus/2-feeAmount);\n        token.transfer(feeTo, feeAmount);\n        tasks[_uid].state = State.HunterOutOfTime;\n        emit HunterAOutOfTime(_uid, msg.sender, tasks[_uid].hash);\n    }\n    \n    //\n    function promoterFinished(uint24 _uid)\n        public\n        inTime(_uid)\n        inState(_uid, State.HunterFinished)\n        onlyPromoter(_uid)\n    {\n        uint feeAmount = tasks[_uid].bonus * 5 / 1000;\n        token.transfer(msg.sender, tasks[_uid].bonus/2 - feeAmount);\n        token.transfer(feeTo, feeAmount);\n        token.transfer(tasks[_uid].hunterA, tasks[_uid].bonus);\n        tasks[_uid].state = State.Promoterfinished;\n        emit PromoterFinished(_uid, msg.sender, tasks[_uid].hash);\n    }\n    \n    //\n    function taskFallback(uint24 _uid)\n        public\n        inTime(_uid)\n        inState(_uid, State.HunterFinished)\n        onlyPromoter(_uid)\n    {\n        tasks[_uid].taskStart = now;\n        tasks[_uid].state = State.Confirmed;\n        emit TaskFallback(_uid, msg.sender, tasks[_uid].hash);\n    }\n    \n    //\n    function promoterOutOfTime(uint24 _uid)\n        public\n        outOfTime(_uid)\n        inState(_uid, State.HunterFinished)\n        onlyhunterA(_uid)\n    {\n        uint feeAmount = tasks[_uid].bonus * 5 / 1000;\n        token.transfer(feeTo, feeAmount);\n        token.transfer(msg.sender, tasks[_uid].bonus);\n        tasks[_uid].state = State.PromoterOutOfTime;\n        emit PromoterOutOfTime(_uid, msg.sender, tasks[_uid].hash);\n    }\n    \n    //\n    function getTask(uint24 _uid) \n        public \n        view\n        returns (TaskMessage memory) \n    {\n        return (tasks[_uid]);\n    }\n\n}\n",
  "sourcePath": "D:/vue-work/truffle-contract/contracts/Bounty.sol",
  "compiler": {
    "name": "solc",
    "version": "0.6.10+commit.00c0fcaf.Emscripten.clang"
  },
  "schemaVersion": "3.2.2",
  "updatedAt": "2020-08-15T02:56:54.522Z",
  "networkType": "ethereum",
  "devdoc": {
    "methods": {}
  },
  "userdoc": {
    "methods": {}
  }
}