{
  "contractName": "Exchange",
  "abi": [
    {
      "inputs": [],
      "stateMutability": "nonpayable",
      "type": "constructor"
    },
    {
      "stateMutability": "payable",
      "type": "fallback",
      "payable": true
    },
    {
      "stateMutability": "payable",
      "type": "receive",
      "payable": true
    },
    {
      "inputs": [
        {
          "internalType": "uint256",
          "name": "_amount",
          "type": "uint256"
        }
      ],
      "name": "larkToEth",
      "outputs": [],
      "stateMutability": "payable",
      "type": "function",
      "payable": true
    },
    {
      "inputs": [
        {
          "internalType": "uint256",
          "name": "_price",
          "type": "uint256"
        }
      ],
      "name": "setPrice",
      "outputs": [],
      "stateMutability": "nonpayable",
      "type": "function"
    },
    {
      "inputs": [],
      "name": "getThis",
      "outputs": [
        {
          "internalType": "address",
          "name": "",
          "type": "address"
        }
      ],
      "stateMutability": "view",
      "type": "function",
      "constant": true
    },
    {
      "inputs": [],
      "name": "getMessage",
      "outputs": [
        {
          "internalType": "address",
          "name": "",
          "type": "address"
        },
        {
          "internalType": "uint256",
          "name": "",
          "type": "uint256"
        }
      ],
      "stateMutability": "view",
      "type": "function",
      "constant": true
    },
    {
      "inputs": [
        {
          "internalType": "uint256",
          "name": "_amount",
          "type": "uint256"
        }
      ],
      "name": "withdrawEth",
      "outputs": [],
      "stateMutability": "nonpayable",
      "type": "function"
    },
    {
      "inputs": [
        {
          "internalType": "uint256",
          "name": "_amount",
          "type": "uint256"
        }
      ],
      "name": "withdrawLark",
      "outputs": [],
      "stateMutability": "nonpayable",
      "type": "function"
    }
  ],
  "bytecode": "0x608060405273241379715a7ab2958976a237c26d2e1986b55a9b6000806101000a81548173ffffffffffffffffffffffffffffffffffffffff021916908373ffffffffffffffffffffffffffffffffffffffff160217905550737d407640d25f023dadf414888515940d3ff298e2600160006101000a81548173ffffffffffffffffffffffffffffffffffffffff021916908373ffffffffffffffffffffffffffffffffffffffff1602179055503480156100b957600080fd5b5033600260006101000a81548173ffffffffffffffffffffffffffffffffffffffff021916908373ffffffffffffffffffffffffffffffffffffffff1602179055506127106003819055506107b2806101136000396000f3fe6080604052600436106100595760003560e01c80631f14dc811461014a578063228675cc1461017857806391b7f5ed146101b3578063b8368615146101ee578063c311d04914610245578063ce6d41de1461028057610148565b36610148576000809054906101000a900473ffffffffffffffffffffffffffffffffffffffff1673ffffffffffffffffffffffffffffffffffffffff1663a9059cbb3360035434026040518363ffffffff1660e01b8152600401808373ffffffffffffffffffffffffffffffffffffffff1673ffffffffffffffffffffffffffffffffffffffff16815260200182815260200192505050602060405180830381600087803b15801561010a57600080fd5b505af115801561011e573d6000803e3d6000fd5b505050506040513d602081101561013457600080fd5b810190808051906020019092919050505050005b005b6101766004803603602081101561016057600080fd5b81019080803590602001909291905050506102de565b005b34801561018457600080fd5b506101b16004803603602081101561019b57600080fd5b8101908080359060200190929190505050610417565b005b3480156101bf57600080fd5b506101ec600480360360208110156101d657600080fd5b8101908080359060200190929190505050610558565b005b3480156101fa57600080fd5b5061020361069f565b604051808273ffffffffffffffffffffffffffffffffffffffff1673ffffffffffffffffffffffffffffffffffffffff16815260200191505060405180910390f35b34801561025157600080fd5b5061027e6004803603602081101561026857600080fd5b81019080803590602001909291905050506106a7565b005b34801561028c57600080fd5b5061029561074b565b604051808373ffffffffffffffffffffffffffffffffffffffff1673ffffffffffffffffffffffffffffffffffffffff1681526020018281526020019250505060405180910390f35b6000809054906101000a900473ffffffffffffffffffffffffffffffffffffffff1673ffffffffffffffffffffffffffffffffffffffff16635c6bcad430836040518363ffffffff1660e01b8152600401808373ffffffffffffffffffffffffffffffffffffffff1673ffffffffffffffffffffffffffffffffffffffff16815260200182815260200192505050602060405180830381600087803b15801561038657600080fd5b505af115801561039a573d6000803e3d6000fd5b505050506040513d60208110156103b057600080fd5b8101908080519060200190929190505050503373ffffffffffffffffffffffffffffffffffffffff166108fc60035483816103e757fe5b049081150290604051600060405180830381858888f19350505050158015610413573d6000803e3d6000fd5b5050565b600260009054906101000a900473ffffffffffffffffffffffffffffffffffffffff1673ffffffffffffffffffffffffffffffffffffffff163373ffffffffffffffffffffffffffffffffffffffff161461047157600080fd5b6000809054906101000a900473ffffffffffffffffffffffffffffffffffffffff1673ffffffffffffffffffffffffffffffffffffffff1663a9059cbb33836040518363ffffffff1660e01b8152600401808373ffffffffffffffffffffffffffffffffffffffff1673ffffffffffffffffffffffffffffffffffffffff16815260200182815260200192505050602060405180830381600087803b15801561051957600080fd5b505af115801561052d573d6000803e3d6000fd5b505050506040513d602081101561054357600080fd5b81019080805190602001909291905050505050565b600260009054906101000a900473ffffffffffffffffffffffffffffffffffffffff1673ffffffffffffffffffffffffffffffffffffffff163373ffffffffffffffffffffffffffffffffffffffff16148061068c5750600160009054906101000a900473ffffffffffffffffffffffffffffffffffffffff1673ffffffffffffffffffffffffffffffffffffffff16635c05ee8d336040518263ffffffff1660e01b8152600401808273ffffffffffffffffffffffffffffffffffffffff1673ffffffffffffffffffffffffffffffffffffffff168152602001915050602060405180830381600087803b15801561065057600080fd5b505af1158015610664573d6000803e3d6000fd5b505050506040513d602081101561067a57600080fd5b81019080805190602001909291905050505b61069557600080fd5b8060038190555050565b600030905090565b600260009054906101000a900473ffffffffffffffffffffffffffffffffffffffff1673ffffffffffffffffffffffffffffffffffffffff163373ffffffffffffffffffffffffffffffffffffffff161461070157600080fd5b3373ffffffffffffffffffffffffffffffffffffffff166108fc829081150290604051600060405180830381858888f19350505050158015610747573d6000803e3d6000fd5b5050565b600080600260009054906101000a900473ffffffffffffffffffffffffffffffffffffffff1660035491509150909156fea264697066735822122052aa127b5d36b142e067aad92e65d0f48493e4c70be22c3b417c05fcd31377cd64736f6c634300060a0033",
  "immutableReferences": {},
  "source": "pragma solidity >=0.4.22 <0.7.0;\n\n\ninterface TokenToExchange {\n    function transfer(address _to, uint256 _value) external returns (bool success);\n    function transferFromOrigin(address _to, uint256 _value) external returns (bool success);\n}\n\ninterface AccessToExchange{\n    function inSuperAdmins(address a) external returns (bool success);\n}\n\ncontract Exchange {\n    TokenToExchange token = TokenToExchange(0x241379715A7aB2958976a237c26d2E1986b55A9b);\n    AccessToExchange access = AccessToExchange(0x7d407640d25f023Dadf414888515940D3ff298e2);\n    \n    address owner;\n    uint price;\n    \n    constructor() public \n    {\n       owner = msg.sender;\n       price = 10000; //1eth=10000lark\n    }\n    \n    modifier onlyOwner() {\n        require(msg.sender == owner);\n        _;\n    }\n    \n    //给合约转以太币以换取代币\n    receive() external \n        payable \n    { \n        token.transfer(msg.sender, msg.value * price);\n    }\n    \n    fallback () external payable { }\n    \n    function larkToEth(uint _amount) \n        public\n        payable\n    {\n        token.transferFromOrigin(address(this), _amount);\n        msg.sender.transfer(_amount / price);\n    }\n    \n    function setPrice(uint _price)\n        public\n    {\n        require(msg.sender == owner || access.inSuperAdmins(msg.sender));\n        price = _price;\n    }\n    \n    function getThis() \n        public\n        view\n        returns(address)\n    {\n        return address(this);\n    }\n    \n    function getMessage()\n        public\n        view\n        returns(address, uint)\n    {\n        return (owner, price);\n    }\n\n    function withdrawEth(uint _amount)\n        public\n        onlyOwner\n    {\n        msg.sender.transfer(_amount);\n    }\n\n    function withdrawLark(uint _amount)\n        public\n        onlyOwner\n    {\n        token.transfer(msg.sender, _amount);\n    }\n    \n}",
  "sourcePath": "D:\\vue-work\\truffle-contract\\contracts\\Exchange.sol",
  "compiler": {
    "name": "solc",
    "version": "0.6.10+commit.00c0fcaf.Emscripten.clang"
  },
  "schemaVersion": "3.2.0",
  "updatedAt": "2020-07-06T00:43:19.133Z",
  "networkType": "ethereum",
  "devdoc": {
    "methods": {}
  },
  "userdoc": {
    "methods": {}
  }
}