{
  "contractName": "Exchange",
  "abi": [
    {
      "inputs": [
        {
          "internalType": "address",
          "name": "elt",
          "type": "address"
        },
        {
          "internalType": "address",
          "name": "proxy",
          "type": "address"
        }
      ],
      "stateMutability": "nonpayable",
      "type": "constructor"
    },
    {
      "stateMutability": "payable",
      "type": "receive",
      "payable": true
    },
    {
      "inputs": [
        {
          "internalType": "uint256",
          "name": "_amount",
          "type": "uint256"
        }
      ],
      "name": "larkToEth",
      "outputs": [],
      "stateMutability": "payable",
      "type": "function",
      "payable": true
    },
    {
      "inputs": [
        {
          "internalType": "uint24",
          "name": "_price",
          "type": "uint24"
        }
      ],
      "name": "setPrice",
      "outputs": [],
      "stateMutability": "nonpayable",
      "type": "function"
    },
    {
      "inputs": [],
      "name": "getThis",
      "outputs": [
        {
          "internalType": "address",
          "name": "",
          "type": "address"
        }
      ],
      "stateMutability": "view",
      "type": "function",
      "constant": true
    },
    {
      "inputs": [],
      "name": "getMessage",
      "outputs": [
        {
          "internalType": "address",
          "name": "",
          "type": "address"
        },
        {
          "internalType": "uint256",
          "name": "",
          "type": "uint256"
        }
      ],
      "stateMutability": "view",
      "type": "function",
      "constant": true
    },
    {
      "inputs": [
        {
          "internalType": "uint256",
          "name": "_amount",
          "type": "uint256"
        }
      ],
      "name": "withdrawLark",
      "outputs": [],
      "stateMutability": "nonpayable",
      "type": "function"
    }
  ],
  "bytecode": "0x608060405234801561001057600080fd5b506040516107873803806107878339818101604052604081101561003357600080fd5b81019080805190602001909291908051906020019092919050505033600260006101000a81548173ffffffffffffffffffffffffffffffffffffffff021916908373ffffffffffffffffffffffffffffffffffffffff16021790555061c350600260146101000a81548162ffffff021916908362ffffff160217905550816000806101000a81548173ffffffffffffffffffffffffffffffffffffffff021916908373ffffffffffffffffffffffffffffffffffffffff16021790555080600160006101000a81548173ffffffffffffffffffffffffffffffffffffffff021916908373ffffffffffffffffffffffffffffffffffffffff1602179055505050610645806101426000396000f3fe60806040526004361061004e5760003560e01c80631f14dc8114610156578063228675cc146101845780633dcadb60146101bf578063b8368615146101ff578063ce6d41de1461025657610151565b36610151576000809054906101000a900473ffffffffffffffffffffffffffffffffffffffff1673ffffffffffffffffffffffffffffffffffffffff1663a9059cbb33600260149054906101000a900462ffffff1662ffffff1634026040518363ffffffff1660e01b8152600401808373ffffffffffffffffffffffffffffffffffffffff1673ffffffffffffffffffffffffffffffffffffffff16815260200182815260200192505050602060405180830381600087803b15801561011357600080fd5b505af1158015610127573d6000803e3d6000fd5b505050506040513d602081101561013d57600080fd5b810190808051906020019092919050505050005b600080fd5b6101826004803603602081101561016c57600080fd5b81019080803590602001909291905050506102b4565b005b34801561019057600080fd5b506101bd600480360360208110156101a757600080fd5b8101908080359060200190929190505050610402565b005b3480156101cb57600080fd5b506101fd600480360360208110156101e257600080fd5b81019080803562ffffff169060200190929190505050610543565b005b34801561020b57600080fd5b506102146105bf565b604051808273ffffffffffffffffffffffffffffffffffffffff1673ffffffffffffffffffffffffffffffffffffffff16815260200191505060405180910390f35b34801561026257600080fd5b5061026b6105c7565b604051808373ffffffffffffffffffffffffffffffffffffffff1673ffffffffffffffffffffffffffffffffffffffff1681526020018281526020019250505060405180910390f35b600160009054906101000a900473ffffffffffffffffffffffffffffffffffffffff1673ffffffffffffffffffffffffffffffffffffffff1663a31fe34730836040518363ffffffff1660e01b8152600401808373ffffffffffffffffffffffffffffffffffffffff1673ffffffffffffffffffffffffffffffffffffffff16815260200182815260200192505050602060405180830381600087803b15801561035d57600080fd5b505af1158015610371573d6000803e3d6000fd5b505050506040513d602081101561038757600080fd5b8101908080519060200190929190505050503373ffffffffffffffffffffffffffffffffffffffff166108fc600260149054906101000a900462ffffff1662ffffff1683816103d257fe5b049081150290604051600060405180830381858888f193505050501580156103fe573d6000803e3d6000fd5b5050565b600260009054906101000a900473ffffffffffffffffffffffffffffffffffffffff1673ffffffffffffffffffffffffffffffffffffffff163373ffffffffffffffffffffffffffffffffffffffff161461045c57600080fd5b6000809054906101000a900473ffffffffffffffffffffffffffffffffffffffff1673ffffffffffffffffffffffffffffffffffffffff1663a9059cbb33836040518363ffffffff1660e01b8152600401808373ffffffffffffffffffffffffffffffffffffffff1673ffffffffffffffffffffffffffffffffffffffff16815260200182815260200192505050602060405180830381600087803b15801561050457600080fd5b505af1158015610518573d6000803e3d6000fd5b505050506040513d602081101561052e57600080fd5b81019080805190602001909291905050505050565b600260009054906101000a900473ffffffffffffffffffffffffffffffffffffffff1673ffffffffffffffffffffffffffffffffffffffff163373ffffffffffffffffffffffffffffffffffffffff161461059d57600080fd5b80600260146101000a81548162ffffff021916908362ffffff16021790555050565b600030905090565b600080600260009054906101000a900473ffffffffffffffffffffffffffffffffffffffff16600260149054906101000a900462ffffff168062ffffff16905091509150909156fea26469706673582212205b655453374a744d01cf09f6941d8ebbc0277dcf8814fe05ed1854d21b6b543f64736f6c634300060a0033",
  "immutableReferences": {},
  "source": "pragma solidity >=0.4.22 <0.7.0;\n\n\ninterface TokenToExchange  {\n    function transfer(address _to, uint256 _value) external returns (bool success);\n}\n\ninterface TokenProxyToExchange  {\n    function transferFromProxy(address recipient, uint256 amount) external returns (bool);\n}\n\n\ncontract Exchange {\n    TokenToExchange token;\n    TokenProxyToExchange tokenproxy;\n       \n    address owner;\n    uint24 price;\n    \n    constructor(address elt, address proxy) public \n    {\n       owner = msg.sender;\n       price = 50000; //1eth=50000lark\n       token = TokenToExchange(elt);\n       tokenproxy = TokenProxyToExchange(proxy);\n    }\n    \n    modifier onlyOwner() {\n        require(msg.sender == owner);\n        _;\n    }\n    \n    //给合约转以太币以换取代币\n    receive() external \n        payable \n    { \n        token.transfer(msg.sender, msg.value * price);\n    }\n    \n    function larkToEth(uint _amount) \n        public\n        payable\n    {\n        tokenproxy.transferFromProxy(address(this), _amount);\n        msg.sender.transfer(_amount / price);\n    }\n    \n    function setPrice(uint24 _price)\n        public\n        onlyOwner\n    {\n        price = _price;\n    }\n    \n    function getThis() \n        public\n        view\n        returns(address)\n    {\n        return address(this);\n    }\n    \n    function getMessage()\n        public\n        view\n        returns(address, uint)\n    {\n        return (owner, price);\n    }\n\n    function withdrawLark(uint _amount)\n        public\n        onlyOwner\n    {\n        token.transfer(msg.sender, _amount);\n    }\n    \n}",
  "sourcePath": "D:/vue-work/truffle-contract/contracts/Exchange.sol",
  "compiler": {
    "name": "solc",
    "version": "0.6.10+commit.00c0fcaf.Emscripten.clang"
  },
  "schemaVersion": "3.2.2",
  "updatedAt": "2020-08-15T02:56:54.549Z",
  "networkType": "ethereum",
  "devdoc": {
    "methods": {}
  },
  "userdoc": {
    "methods": {}
  }
}