{
  "contractName": "Post",
  "abi": [
    {
      "inputs": [],
      "stateMutability": "nonpayable",
      "type": "constructor"
    },
    {
      "anonymous": false,
      "inputs": [
        {
          "indexed": false,
          "internalType": "uint256",
          "name": "id",
          "type": "uint256"
        },
        {
          "indexed": false,
          "internalType": "string",
          "name": "t",
          "type": "string"
        }
      ],
      "name": "PostArticle",
      "type": "event"
    },
    {
      "inputs": [
        {
          "internalType": "uint256",
          "name": "",
          "type": "uint256"
        }
      ],
      "name": "articles",
      "outputs": [
        {
          "internalType": "string",
          "name": "hash",
          "type": "string"
        },
        {
          "internalType": "address",
          "name": "authoraddr",
          "type": "address"
        }
      ],
      "stateMutability": "view",
      "type": "function",
      "constant": true
    },
    {
      "inputs": [],
      "name": "id",
      "outputs": [
        {
          "internalType": "uint256",
          "name": "",
          "type": "uint256"
        }
      ],
      "stateMutability": "view",
      "type": "function",
      "constant": true
    },
    {
      "inputs": [
        {
          "internalType": "string",
          "name": "_hash",
          "type": "string"
        }
      ],
      "name": "postArticle",
      "outputs": [],
      "stateMutability": "nonpayable",
      "type": "function"
    },
    {
      "inputs": [
        {
          "internalType": "uint256",
          "name": "_uid",
          "type": "uint256"
        }
      ],
      "name": "isVoted",
      "outputs": [
        {
          "internalType": "bool",
          "name": "",
          "type": "bool"
        }
      ],
      "stateMutability": "view",
      "type": "function",
      "constant": true
    },
    {
      "inputs": [
        {
          "internalType": "uint256",
          "name": "_uid",
          "type": "uint256"
        }
      ],
      "name": "get",
      "outputs": [
        {
          "components": [
            {
              "internalType": "string",
              "name": "hash",
              "type": "string"
            },
            {
              "internalType": "address",
              "name": "authoraddr",
              "type": "address"
            },
            {
              "internalType": "address[]",
              "name": "voted",
              "type": "address[]"
            },
            {
              "internalType": "uint256[]",
              "name": "amount",
              "type": "uint256[]"
            }
          ],
          "internalType": "struct Post.Article",
          "name": "",
          "type": "tuple"
        }
      ],
      "stateMutability": "view",
      "type": "function",
      "constant": true
    },
    {
      "inputs": [
        {
          "internalType": "uint256",
          "name": "_uid",
          "type": "uint256"
        }
      ],
      "name": "voteLevelOne",
      "outputs": [],
      "stateMutability": "nonpayable",
      "type": "function"
    },
    {
      "inputs": [
        {
          "internalType": "uint256",
          "name": "_uid",
          "type": "uint256"
        }
      ],
      "name": "voteLevelTwo",
      "outputs": [],
      "stateMutability": "nonpayable",
      "type": "function"
    },
    {
      "inputs": [
        {
          "internalType": "uint256",
          "name": "_uid",
          "type": "uint256"
        }
      ],
      "name": "voteLevelThree",
      "outputs": [],
      "stateMutability": "nonpayable",
      "type": "function"
    },
    {
      "inputs": [
        {
          "internalType": "uint256",
          "name": "_one",
          "type": "uint256"
        },
        {
          "internalType": "uint256",
          "name": "_two",
          "type": "uint256"
        },
        {
          "internalType": "uint256",
          "name": "_three",
          "type": "uint256"
        }
      ],
      "name": "setLevel",
      "outputs": [],
      "stateMutability": "nonpayable",
      "type": "function"
    },
    {
      "inputs": [],
      "name": "getMessage",
      "outputs": [
        {
          "internalType": "uint256",
          "name": "",
          "type": "uint256"
        },
        {
          "internalType": "uint256",
          "name": "",
          "type": "uint256"
        },
        {
          "internalType": "uint256",
          "name": "",
          "type": "uint256"
        }
      ],
      "stateMutability": "view",
      "type": "function",
      "constant": true
    }
  ],
  "bytecode": "0x608060405273241379715a7ab2958976a237c26d2e1986b55a9b6000806101000a81548173ffffffffffffffffffffffffffffffffffffffff021916908373ffffffffffffffffffffffffffffffffffffffff160217905550737d407640d25f023dadf414888515940d3ff298e2600160006101000a81548173ffffffffffffffffffffffffffffffffffffffff021916908373ffffffffffffffffffffffffffffffffffffffff16021790555060006002553480156100be57600080fd5b5033600360006101000a81548173ffffffffffffffffffffffffffffffffffffffff021916908373ffffffffffffffffffffffffffffffffffffffff160217905550680ad78ebc5ac62000006004819055506815af1d78b58c400000600581905550682086ac351052600000600681905550611caf8061013f6000396000f3fe608060405234801561001057600080fd5b506004361061009e5760003560e01c8063bd05871b11610066578063bd05871b14610159578063beb7944214610175578063ce6d41de14610191578063edcfafe6146101b1578063fe81a1f7146101e25761009e565b80631d15225f146100a357806339fe68c3146100bf5780639507d39a146100db578063af640d0f1461010b578063bb660d8114610129575b600080fd5b6100bd60048036038101906100b891906116d7565b6101fe565b005b6100d960048036038101906100d491906116ae565b610326565b005b6100f560048036038101906100f091906116ae565b610784565b60405161010291906119de565b60405180910390f35b61011361098f565b6040516101209190611a00565b60405180910390f35b610143600480360381019061013e91906116ae565b610995565b6040516101509190611993565b60405180910390f35b610173600480360381019061016e91906116ae565b610a5f565b005b61018f600480360381019061018a91906116ae565b610ebd565b005b61019961131b565b6040516101a893929190611a4b565b60405180910390f35b6101cb60048036038101906101c691906116ae565b611334565b6040516101d99291906119ae565b60405180910390f35b6101fc60048036038101906101f7919061166d565b611410565b005b600360009054906101000a900473ffffffffffffffffffffffffffffffffffffffff1673ffffffffffffffffffffffffffffffffffffffff163373ffffffffffffffffffffffffffffffffffffffff1614806103035750600160009054906101000a900473ffffffffffffffffffffffffffffffffffffffff1673ffffffffffffffffffffffffffffffffffffffff16635c05ee8d336040518263ffffffff1660e01b81526004016102b0919061194f565b602060405180830381600087803b1580156102ca57600080fd5b505af11580156102de573d6000803e3d6000fd5b505050506040513d601f19601f820116820180604052508101906103029190611644565b5b61030c57600080fd5b826004819055508160058190555080600681905550505050565b61032f81610995565b1561033957600080fd5b600360009054906101000a900473ffffffffffffffffffffffffffffffffffffffff1673ffffffffffffffffffffffffffffffffffffffff163373ffffffffffffffffffffffffffffffffffffffff16148061043e5750600160009054906101000a900473ffffffffffffffffffffffffffffffffffffffff1673ffffffffffffffffffffffffffffffffffffffff16635c05ee8d336040518263ffffffff1660e01b81526004016103eb919061194f565b602060405180830381600087803b15801561040557600080fd5b505af1158015610419573d6000803e3d6000fd5b505050506040513d601f19601f8201168201806040525081019061043d9190611644565b5b806104f25750600160009054906101000a900473ffffffffffffffffffffffffffffffffffffffff1673ffffffffffffffffffffffffffffffffffffffff16631b48315c336040518263ffffffff1660e01b815260040161049f919061194f565b602060405180830381600087803b1580156104b957600080fd5b505af11580156104cd573d6000803e3d6000fd5b505050506040513d601f19601f820116820180604052508101906104f19190611644565b5b156105e3576000809054906101000a900473ffffffffffffffffffffffffffffffffffffffff1673ffffffffffffffffffffffffffffffffffffffff1663a9059cbb6007600084815260200190815260200160002060010160009054906101000a900473ffffffffffffffffffffffffffffffffffffffff166004546040518363ffffffff1660e01b815260040161058b92919061196a565b602060405180830381600087803b1580156105a557600080fd5b505af11580156105b9573d6000803e3d6000fd5b505050506040513d601f19601f820116820180604052508101906105dd9190611644565b506106cb565b6000809054906101000a900473ffffffffffffffffffffffffffffffffffffffff1673ffffffffffffffffffffffffffffffffffffffff16635c6bcad46007600084815260200190815260200160002060010160009054906101000a900473ffffffffffffffffffffffffffffffffffffffff166004546040518363ffffffff1660e01b815260040161067792919061196a565b602060405180830381600087803b15801561069157600080fd5b505af11580156106a5573d6000803e3d6000fd5b505050506040513d601f19601f820116820180604052508101906106c99190611644565b505b60076000828152602001908152602001600020600201339080600181540180825580915050600190039060005260206000200160009091909190916101000a81548173ffffffffffffffffffffffffffffffffffffffff021916908373ffffffffffffffffffffffffffffffffffffffff16021790555060076000828152602001908152602001600020600301600454908060018154018082558091505060019003906000526020600020016000909190919091505550565b61078c6114e3565b60076000838152602001908152602001600020604051806080016040529081600082018054600181600116156101000203166002900480601f0160208091040260200160405190810160405280929190818152602001828054600181600116156101000203166002900480156108435780601f1061081857610100808354040283529160200191610843565b820191906000526020600020905b81548152906001019060200180831161082657829003601f168201915b505050505081526020016001820160009054906101000a900473ffffffffffffffffffffffffffffffffffffffff1673ffffffffffffffffffffffffffffffffffffffff1673ffffffffffffffffffffffffffffffffffffffff1681526020016002820180548060200260200160405190810160405280929190818152602001828054801561092757602002820191906000526020600020905b8160009054906101000a900473ffffffffffffffffffffffffffffffffffffffff1673ffffffffffffffffffffffffffffffffffffffff16815260200190600101908083116108dd575b505050505081526020016003820180548060200260200160405190810160405280929190818152602001828054801561097f57602002820191906000526020600020905b81548152602001906001019080831161096b575b5050505050815250509050919050565b60025481565b600080600090505b6007600084815260200190815260200160002060020180549050811015610a54576007600084815260200190815260200160002060020181815481106109df57fe5b9060005260206000200160009054906101000a900473ffffffffffffffffffffffffffffffffffffffff1673ffffffffffffffffffffffffffffffffffffffff163373ffffffffffffffffffffffffffffffffffffffff161415610a47576001915050610a5a565b808060010191505061099d565b50600090505b919050565b610a6881610995565b15610a7257600080fd5b600360009054906101000a900473ffffffffffffffffffffffffffffffffffffffff1673ffffffffffffffffffffffffffffffffffffffff163373ffffffffffffffffffffffffffffffffffffffff161480610b775750600160009054906101000a900473ffffffffffffffffffffffffffffffffffffffff1673ffffffffffffffffffffffffffffffffffffffff16635c05ee8d336040518263ffffffff1660e01b8152600401610b24919061194f565b602060405180830381600087803b158015610b3e57600080fd5b505af1158015610b52573d6000803e3d6000fd5b505050506040513d601f19601f82011682018060405250810190610b769190611644565b5b80610c2b5750600160009054906101000a900473ffffffffffffffffffffffffffffffffffffffff1673ffffffffffffffffffffffffffffffffffffffff16631b48315c336040518263ffffffff1660e01b8152600401610bd8919061194f565b602060405180830381600087803b158015610bf257600080fd5b505af1158015610c06573d6000803e3d6000fd5b505050506040513d601f19601f82011682018060405250810190610c2a9190611644565b5b15610d1c576000809054906101000a900473ffffffffffffffffffffffffffffffffffffffff1673ffffffffffffffffffffffffffffffffffffffff1663a9059cbb6007600084815260200190815260200160002060010160009054906101000a900473ffffffffffffffffffffffffffffffffffffffff166006546040518363ffffffff1660e01b8152600401610cc492919061196a565b602060405180830381600087803b158015610cde57600080fd5b505af1158015610cf2573d6000803e3d6000fd5b505050506040513d601f19601f82011682018060405250810190610d169190611644565b50610e04565b6000809054906101000a900473ffffffffffffffffffffffffffffffffffffffff1673ffffffffffffffffffffffffffffffffffffffff16635c6bcad46007600084815260200190815260200160002060010160009054906101000a900473ffffffffffffffffffffffffffffffffffffffff166006546040518363ffffffff1660e01b8152600401610db092919061196a565b602060405180830381600087803b158015610dca57600080fd5b505af1158015610dde573d6000803e3d6000fd5b505050506040513d601f19601f82011682018060405250810190610e029190611644565b505b60076000828152602001908152602001600020600201339080600181540180825580915050600190039060005260206000200160009091909190916101000a81548173ffffffffffffffffffffffffffffffffffffffff021916908373ffffffffffffffffffffffffffffffffffffffff16021790555060076000828152602001908152602001600020600301600654908060018154018082558091505060019003906000526020600020016000909190919091505550565b610ec681610995565b15610ed057600080fd5b600360009054906101000a900473ffffffffffffffffffffffffffffffffffffffff1673ffffffffffffffffffffffffffffffffffffffff163373ffffffffffffffffffffffffffffffffffffffff161480610fd55750600160009054906101000a900473ffffffffffffffffffffffffffffffffffffffff1673ffffffffffffffffffffffffffffffffffffffff16635c05ee8d336040518263ffffffff1660e01b8152600401610f82919061194f565b602060405180830381600087803b158015610f9c57600080fd5b505af1158015610fb0573d6000803e3d6000fd5b505050506040513d601f19601f82011682018060405250810190610fd49190611644565b5b806110895750600160009054906101000a900473ffffffffffffffffffffffffffffffffffffffff1673ffffffffffffffffffffffffffffffffffffffff16631b48315c336040518263ffffffff1660e01b8152600401611036919061194f565b602060405180830381600087803b15801561105057600080fd5b505af1158015611064573d6000803e3d6000fd5b505050506040513d601f19601f820116820180604052508101906110889190611644565b5b1561117a576000809054906101000a900473ffffffffffffffffffffffffffffffffffffffff1673ffffffffffffffffffffffffffffffffffffffff1663a9059cbb6007600084815260200190815260200160002060010160009054906101000a900473ffffffffffffffffffffffffffffffffffffffff166005546040518363ffffffff1660e01b815260040161112292919061196a565b602060405180830381600087803b15801561113c57600080fd5b505af1158015611150573d6000803e3d6000fd5b505050506040513d601f19601f820116820180604052508101906111749190611644565b50611262565b6000809054906101000a900473ffffffffffffffffffffffffffffffffffffffff1673ffffffffffffffffffffffffffffffffffffffff16635c6bcad46007600084815260200190815260200160002060010160009054906101000a900473ffffffffffffffffffffffffffffffffffffffff166005546040518363ffffffff1660e01b815260040161120e92919061196a565b602060405180830381600087803b15801561122857600080fd5b505af115801561123c573d6000803e3d6000fd5b505050506040513d601f19601f820116820180604052508101906112609190611644565b505b60076000828152602001908152602001600020600201339080600181540180825580915050600190039060005260206000200160009091909190916101000a81548173ffffffffffffffffffffffffffffffffffffffff021916908373ffffffffffffffffffffffffffffffffffffffff16021790555060076000828152602001908152602001600020600301600554908060018154018082558091505060019003906000526020600020016000909190919091505550565b6000806000600454600554600654925092509250909192565b6007602052806000526040600020600091509050806000018054600181600116156101000203166002900480601f0160208091040260200160405190810160405280929190818152602001828054600181600116156101000203166002900480156113e05780601f106113b5576101008083540402835291602001916113e0565b820191906000526020600020905b8154815290600101906020018083116113c357829003601f168201915b5050505050908060010160009054906101000a900473ffffffffffffffffffffffffffffffffffffffff16905082565b600160026000828254019250508190555080600760006002548152602001908152602001600020600001908051906020019061144d929190611521565b503360076000600254815260200190815260200160002060010160006101000a81548173ffffffffffffffffffffffffffffffffffffffff021916908373ffffffffffffffffffffffffffffffffffffffff1602179055507f42d2faa14af6461f36479709f3ece09a6d84c17061a66b807bd2a3a9211d6e0b600254826040516114d8929190611a1b565b60405180910390a150565b604051806080016040528060608152602001600073ffffffffffffffffffffffffffffffffffffffff16815260200160608152602001606081525090565b828054600181600116156101000203166002900490600052602060002090601f016020900481019282601f1061156257805160ff1916838001178555611590565b82800160010185558215611590579182015b8281111561158f578251825591602001919060010190611574565b5b50905061159d91906115a1565b5090565b6115c391905b808211156115bf5760008160009055506001016115a7565b5090565b90565b6000815190506115d581611c4b565b92915050565b600082601f8301126115ec57600080fd5b81356115ff6115fa82611aaf565b611a82565b9150808252602083016020830185838301111561161b57600080fd5b611626838284611bf8565b50505092915050565b60008135905061163e81611c62565b92915050565b60006020828403121561165657600080fd5b6000611664848285016115c6565b91505092915050565b60006020828403121561167f57600080fd5b600082013567ffffffffffffffff81111561169957600080fd5b6116a5848285016115db565b91505092915050565b6000602082840312156116c057600080fd5b60006116ce8482850161162f565b91505092915050565b6000806000606084860312156116ec57600080fd5b60006116fa8682870161162f565b935050602061170b8682870161162f565b925050604061171c8682870161162f565b9150509250925092565b60006117328383611765565b60208301905092915050565b600061174a8383611931565b60208301905092915050565b61175f81611bc2565b82525050565b61176e81611b7a565b82525050565b61177d81611b7a565b82525050565b600061178e82611afb565b6117988185611b36565b93506117a383611adb565b8060005b838110156117d45781516117bb8882611726565b97506117c683611b1c565b9250506001810190506117a7565b5085935050505092915050565b60006117ec82611b06565b6117f68185611b47565b935061180183611aeb565b8060005b83811015611832578151611819888261173e565b975061182483611b29565b925050600181019050611805565b5085935050505092915050565b61184881611b8c565b82525050565b600061185982611b11565b6118638185611b58565b9350611873818560208601611c07565b61187c81611c3a565b840191505092915050565b600061189282611b11565b61189c8185611b69565b93506118ac818560208601611c07565b6118b581611c3a565b840191505092915050565b600060808301600083015184820360008601526118dd828261184e565b91505060208301516118f26020860182611765565b506040830151848203604086015261190a8282611783565b9150506060830151848203606086015261192482826117e1565b9150508091505092915050565b61193a81611bb8565b82525050565b61194981611bb8565b82525050565b60006020820190506119646000830184611756565b92915050565b600060408201905061197f6000830185611774565b61198c6020830184611940565b9392505050565b60006020820190506119a8600083018461183f565b92915050565b600060408201905081810360008301526119c88185611887565b90506119d76020830184611774565b9392505050565b600060208201905081810360008301526119f881846118c0565b905092915050565b6000602082019050611a156000830184611940565b92915050565b6000604082019050611a306000830185611940565b8181036020830152611a428184611887565b90509392505050565b6000606082019050611a606000830186611940565b611a6d6020830185611940565b611a7a6040830184611940565b949350505050565b6000604051905081810181811067ffffffffffffffff82111715611aa557600080fd5b8060405250919050565b600067ffffffffffffffff821115611ac657600080fd5b601f19601f8301169050602081019050919050565b6000819050602082019050919050565b6000819050602082019050919050565b600081519050919050565b600081519050919050565b600081519050919050565b6000602082019050919050565b6000602082019050919050565b600082825260208201905092915050565b600082825260208201905092915050565b600082825260208201905092915050565b600082825260208201905092915050565b6000611b8582611b98565b9050919050565b60008115159050919050565b600073ffffffffffffffffffffffffffffffffffffffff82169050919050565b6000819050919050565b6000611bcd82611bd4565b9050919050565b6000611bdf82611be6565b9050919050565b6000611bf182611b98565b9050919050565b82818337600083830152505050565b60005b83811015611c25578082015181840152602081019050611c0a565b83811115611c34576000848401525b50505050565b6000601f19601f8301169050919050565b611c5481611b8c565b8114611c5f57600080fd5b50565b611c6b81611bb8565b8114611c7657600080fd5b5056fea26469706673582212204ad48df27fd2dda12d5aaebd3b778f54feeca8fc6e31f497f239ead1e5c8b12564736f6c634300060a0033",
  "immutableReferences": {},
  "source": "pragma solidity >=0.4.22 <0.7.0;\npragma experimental ABIEncoderV2;\n\n\ninterface TokenToPost{\n    function transfer(address _to, uint256 _value) external returns (bool success);\n    function transferFromOrigin(address _to, uint256 _value) external returns (bool success);\n}\n\ninterface AccessToPost{\n    function inSuperAdmins(address a) external returns (bool success);\n    function inAdmins(address a) external returns (bool success);\n}\n\ncontract Post {\n    TokenToPost token = TokenToPost(0x241379715A7aB2958976a237c26d2E1986b55A9b);\n    AccessToPost access = AccessToPost(0x7d407640d25f023Dadf414888515940D3ff298e2);\n    \n    uint public id = 0;\n    address owner;\n    uint level1;\n    uint level2;\n    uint level3;\n\n    constructor() public \n    {\n       owner = msg.sender;\n       level1 = 200 * 1e18;\n       level2 = 400 * 1e18;\n       level3 = 600 * 1e18;\n    }\n\n    \n    struct Article \n    {\n        string hash;\n        address authoraddr;\n        address[] voted;\n        uint[] amount;\n    }\n    \n    mapping(uint => Article) public articles;\n    \n    event PostArticle(uint id, string t);\n    \n    function postArticle(string memory _hash)\n        public \n    {       \n        id += 1;\n        articles[id].hash = _hash;\n        articles[id].authoraddr = msg.sender;\n        emit PostArticle(id, _hash);\n    }\n    \n    function isVoted(uint _uid)\n        public\n        view\n        returns(bool)\n    {\n        for(uint i = 0; i < articles[_uid].voted.length; i ++){\n            if(msg.sender == articles[_uid].voted[i]){\n                return true;\n            }\n        }\n        return false;\n    }\n\n    function get(uint _uid) \n        public \n        view \n        returns (Article memory) \n    {\n        return articles[_uid];\n    }\n\n        \n    function voteLevelOne(uint _uid)\n        public\n    {\n        require(!isVoted(_uid));\n        if(msg.sender == owner || access.inSuperAdmins(msg.sender) || access.inAdmins(msg.sender)){\n            token.transfer(articles[_uid].authoraddr, level1);\n        } else {\n            token.transferFromOrigin(articles[_uid].authoraddr, level1);\n        }\n        articles[_uid].voted.push(msg.sender);\n        articles[_uid].amount.push(level1);\n    }\n    \n    function voteLevelTwo(uint _uid)\n        public\n    {\n        require(!isVoted(_uid));\n        if(msg.sender == owner || access.inSuperAdmins(msg.sender) || access.inAdmins(msg.sender)){\n            token.transfer(articles[_uid].authoraddr, level2);\n        } else {\n            token.transferFromOrigin(articles[_uid].authoraddr, level2);\n        }\n        articles[_uid].voted.push(msg.sender);\n        articles[_uid].amount.push(level2);\n    }\n    \n    function voteLevelThree(uint _uid)\n        public\n    {\n        require(!isVoted(_uid));\n        if(msg.sender == owner || access.inSuperAdmins(msg.sender) || access.inAdmins(msg.sender)){\n            token.transfer(articles[_uid].authoraddr, level3);\n        } else {\n            token.transferFromOrigin(articles[_uid].authoraddr, level3);\n        }\n        articles[_uid].voted.push(msg.sender);\n        articles[_uid].amount.push(level3);\n    }\n    \n  \n    function setLevel(uint _one, uint _two, uint _three)\n        public\n    {\n        require(msg.sender == owner || access.inSuperAdmins(msg.sender));\n        level1 = _one;\n        level2 = _two;\n        level3 = _three;\n    }\n    \n\n    function getMessage()\n        public\n        view\n        returns(uint, uint, uint)\n    {\n        return(level1, level2, level3);\n    }\n    \n}\n",
  "sourcePath": "D:\\vue-work\\truffle-contract\\contracts\\Post.sol",
  "compiler": {
    "name": "solc",
    "version": "0.6.10+commit.00c0fcaf.Emscripten.clang"
  },
  "schemaVersion": "3.2.0",
  "updatedAt": "2020-07-06T00:41:43.710Z",
  "networkType": "ethereum",
  "devdoc": {
    "methods": {}
  },
  "userdoc": {
    "methods": {}
  }
}