{
  "contractName": "Post",
  "abi": [
    {
      "anonymous": false,
      "inputs": [
        {
          "indexed": true,
          "internalType": "uint24",
          "name": "uid",
          "type": "uint24"
        },
        {
          "indexed": false,
          "internalType": "string",
          "name": "hash",
          "type": "string"
        }
      ],
      "name": "PostArticle",
      "type": "event"
    },
    {
      "inputs": [
        {
          "internalType": "string",
          "name": "_hash",
          "type": "string"
        }
      ],
      "name": "postArticle",
      "outputs": [],
      "stateMutability": "nonpayable",
      "type": "function"
    }
  ],
  "bytecode": "0x608060405260008060006101000a81548162ffffff021916908362ffffff16021790555034801561002f57600080fd5b506102098061003f6000396000f3fe608060405234801561001057600080fd5b506004361061002b5760003560e01c8063fe81a1f714610030575b600080fd5b6100e96004803603602081101561004657600080fd5b810190808035906020019064010000000081111561006357600080fd5b82018360208201111561007557600080fd5b8035906020019184600183028401116401000000008311171561009757600080fd5b91908080601f016020809104026020016040519081016040528093929190818152602001838380828437600081840152601f19601f8201169050808301925050505050505091929192905050506100eb565b005b60016000808282829054906101000a900462ffffff160192506101000a81548162ffffff021916908362ffffff1602179055506000809054906101000a900462ffffff1662ffffff167f92cf8a9f825daf9494845e67c7c6bf9ead2ba9cc22b4131bb536b6147ea5d5ad826040518080602001828103825283818151815260200191508051906020019080838360005b8381101561019657808201518184015260208101905061017b565b50505050905090810190601f1680156101c35780820380516001836020036101000a031916815260200191505b509250505060405180910390a25056fea26469706673582212204f734389ba3274dbaa2416296cb0a05595d1e6b81183e3fadac09f99936565b164736f6c634300060a0033",
  "immutableReferences": {},
  "source": "pragma solidity >=0.4.22 <0.7.0;\n\ncontract Post { \n    uint24 id = 0;\n \n    event PostArticle(uint24 indexed uid, string hash);\n    \n    function postArticle(string memory _hash)\n        public \n    {       \n        id += 1;\n        emit PostArticle(id, _hash);\n    }\n}",
  "sourcePath": "D:/vue-work/truffle-contract/contracts/Post.sol",
  "compiler": {
    "name": "solc",
    "version": "0.6.10+commit.00c0fcaf.Emscripten.clang"
  },
  "schemaVersion": "3.2.2",
  "updatedAt": "2020-08-15T02:39:13.350Z",
  "networkType": "ethereum",
  "devdoc": {
    "methods": {}
  },
  "userdoc": {
    "methods": {}
  }
}