{
  "contractName": "Purchase",
  "abi": [
    {
      "anonymous": false,
      "inputs": [
        {
          "indexed": false,
          "internalType": "uint256",
          "name": "_uid",
          "type": "uint256"
        },
        {
          "indexed": false,
          "internalType": "string",
          "name": "_hash",
          "type": "string"
        },
        {
          "indexed": false,
          "internalType": "address",
          "name": "seller",
          "type": "address"
        }
      ],
      "name": "PostOrder",
      "type": "event"
    },
    {
      "inputs": [],
      "name": "id",
      "outputs": [
        {
          "internalType": "uint256",
          "name": "",
          "type": "uint256"
        }
      ],
      "stateMutability": "view",
      "type": "function",
      "constant": true
    },
    {
      "inputs": [
        {
          "internalType": "uint256",
          "name": "",
          "type": "uint256"
        }
      ],
      "name": "orders",
      "outputs": [
        {
          "internalType": "string",
          "name": "hash",
          "type": "string"
        },
        {
          "internalType": "address",
          "name": "seller",
          "type": "address"
        },
        {
          "internalType": "uint256",
          "name": "price",
          "type": "uint256"
        },
        {
          "internalType": "enum Purchase.State",
          "name": "state",
          "type": "uint8"
        }
      ],
      "stateMutability": "view",
      "type": "function",
      "constant": true
    },
    {
      "inputs": [
        {
          "internalType": "string",
          "name": "_hash",
          "type": "string"
        },
        {
          "internalType": "uint256",
          "name": "_price",
          "type": "uint256"
        }
      ],
      "name": "postOrder",
      "outputs": [],
      "stateMutability": "nonpayable",
      "type": "function"
    },
    {
      "inputs": [
        {
          "internalType": "uint256",
          "name": "_uid",
          "type": "uint256"
        }
      ],
      "name": "cancerOrder",
      "outputs": [],
      "stateMutability": "nonpayable",
      "type": "function"
    },
    {
      "inputs": [
        {
          "internalType": "uint256",
          "name": "_uid",
          "type": "uint256"
        }
      ],
      "name": "getOrder",
      "outputs": [
        {
          "components": [
            {
              "internalType": "string",
              "name": "hash",
              "type": "string"
            },
            {
              "internalType": "address",
              "name": "seller",
              "type": "address"
            },
            {
              "internalType": "address[]",
              "name": "buyers",
              "type": "address[]"
            },
            {
              "internalType": "uint256",
              "name": "price",
              "type": "uint256"
            },
            {
              "internalType": "enum Purchase.State",
              "name": "state",
              "type": "uint8"
            }
          ],
          "internalType": "struct Purchase.OrderMesaage",
          "name": "",
          "type": "tuple"
        }
      ],
      "stateMutability": "view",
      "type": "function",
      "constant": true
    },
    {
      "inputs": [
        {
          "internalType": "uint256",
          "name": "_uid",
          "type": "uint256"
        }
      ],
      "name": "confirmPurchase",
      "outputs": [],
      "stateMutability": "nonpayable",
      "type": "function"
    }
  ],
  "bytecode": "0x608060405273241379715a7ab2958976a237c26d2e1986b55a9b6000806101000a81548173ffffffffffffffffffffffffffffffffffffffff021916908373ffffffffffffffffffffffffffffffffffffffff160217905550600060015534801561006957600080fd5b50610ec4806100796000396000f3fe608060405234801561001057600080fd5b50600436106100625760003560e01c80634d24e902146100675780639a36b43314610083578063a85c38ef1461009f578063af640d0f146100d2578063d09ef241146100f0578063dba9edc814610120575b600080fd5b610081600480360381019061007c91906109b7565b61013c565b005b61009d60048036038101906100989190610963565b6102fb565b005b6100b960048036038101906100b491906109b7565b6103ed565b6040516100c99493929190610bd7565b60405180910390f35b6100da6104e2565b6040516100e79190610c45565b60405180910390f35b61010a600480360381019061010591906109b7565b6104e8565b6040516101179190610c23565b60405180910390f35b61013a600480360381019061013591906109b7565b6106d2565b005b80600080600181111561014b57fe5b6002600084815260200190815260200160002060040160009054906101000a900460ff16600181111561017a57fe5b1461018457600080fd5b60026000848152602001908152602001600020600201339080600181540180825580915050600190039060005260206000200160009091909190916101000a81548173ffffffffffffffffffffffffffffffffffffffff021916908373ffffffffffffffffffffffffffffffffffffffff1602179055506000809054906101000a900473ffffffffffffffffffffffffffffffffffffffff1673ffffffffffffffffffffffffffffffffffffffff16635c6bcad46002600086815260200190815260200160002060010160009054906101000a900473ffffffffffffffffffffffffffffffffffffffff1660026000878152602001908152602001600020600301546040518363ffffffff1660e01b81526004016102a3929190610bae565b602060405180830381600087803b1580156102bd57600080fd5b505af11580156102d1573d6000803e3d6000fd5b505050506040513d601f19601f820116820180604052508101906102f5919061093a565b50505050565b600180600082825401925050819055508160026000600154815260200190815260200160002060000190805190602001906103379291906107c7565b503360026000600154815260200190815260200160002060010160006101000a81548173ffffffffffffffffffffffffffffffffffffffff021916908373ffffffffffffffffffffffffffffffffffffffff16021790555080600260006001548152602001908152602001600020600301819055507fa5fd3c62fa6eb27194b52238764773b5d9b36fa393add976180ac3ff576c9f2060015483336040516103e193929190610c60565b60405180910390a15050565b6002602052806000526040600020600091509050806000018054600181600116156101000203166002900480601f0160208091040260200160405190810160405280929190818152602001828054600181600116156101000203166002900480156104995780601f1061046e57610100808354040283529160200191610499565b820191906000526020600020905b81548152906001019060200180831161047c57829003601f168201915b5050505050908060010160009054906101000a900473ffffffffffffffffffffffffffffffffffffffff16908060030154908060040160009054906101000a900460ff16905084565b60015481565b6104f0610847565b600260008381526020019081526020016000206040518060a0016040529081600082018054600181600116156101000203166002900480601f0160208091040260200160405190810160405280929190818152602001828054600181600116156101000203166002900480156105a75780601f1061057c576101008083540402835291602001916105a7565b820191906000526020600020905b81548152906001019060200180831161058a57829003601f168201915b505050505081526020016001820160009054906101000a900473ffffffffffffffffffffffffffffffffffffffff1673ffffffffffffffffffffffffffffffffffffffff1673ffffffffffffffffffffffffffffffffffffffff1681526020016002820180548060200260200160405190810160405280929190818152602001828054801561068b57602002820191906000526020600020905b8160009054906101000a900473ffffffffffffffffffffffffffffffffffffffff1673ffffffffffffffffffffffffffffffffffffffff1681526020019060010190808311610641575b50505050508152602001600382015481526020016004820160009054906101000a900460ff1660018111156106bc57fe5b60018111156106c757fe5b815250509050919050565b806002600082815260200190815260200160002060010160009054906101000a900473ffffffffffffffffffffffffffffffffffffffff1673ffffffffffffffffffffffffffffffffffffffff163373ffffffffffffffffffffffffffffffffffffffff161461074157600080fd5b81600080600181111561075057fe5b6002600084815260200190815260200160002060040160009054906101000a900460ff16600181111561077f57fe5b1461078957600080fd5b60016002600086815260200190815260200160002060040160006101000a81548160ff021916908360018111156107bc57fe5b021790555050505050565b828054600181600116156101000203166002900490600052602060002090601f016020900481019282601f1061080857805160ff1916838001178555610836565b82800160010185558215610836579182015b8281111561083557825182559160200191906001019061081a565b5b5090506108439190610897565b5090565b6040518060a0016040528060608152602001600073ffffffffffffffffffffffffffffffffffffffff16815260200160608152602001600081526020016000600181111561089157fe5b81525090565b6108b991905b808211156108b557600081600090555060010161089d565b5090565b90565b6000815190506108cb81610e60565b92915050565b600082601f8301126108e257600080fd5b81356108f56108f082610ccb565b610c9e565b9150808252602083016020830185838301111561091157600080fd5b61091c838284610e00565b50505092915050565b60008135905061093481610e77565b92915050565b60006020828403121561094c57600080fd5b600061095a848285016108bc565b91505092915050565b6000806040838503121561097657600080fd5b600083013567ffffffffffffffff81111561099057600080fd5b61099c858286016108d1565b92505060206109ad85828601610925565b9150509250929050565b6000602082840312156109c957600080fd5b60006109d784828501610925565b91505092915050565b60006109ec8383610a07565b60208301905092915050565b610a0181610db8565b82525050565b610a1081610d5d565b82525050565b610a1f81610d5d565b82525050565b6000610a3082610d07565b610a3a8185610d2a565b9350610a4583610cf7565b8060005b83811015610a76578151610a5d88826109e0565b9750610a6883610d1d565b925050600181019050610a49565b5085935050505092915050565b610a8c81610dca565b82525050565b610a9b81610dca565b82525050565b6000610aac82610d12565b610ab68185610d3b565b9350610ac6818560208601610e0f565b610acf81610e42565b840191505092915050565b6000610ae582610d12565b610aef8185610d4c565b9350610aff818560208601610e0f565b610b0881610e42565b840191505092915050565b600060a0830160008301518482036000860152610b308282610aa1565b9150506020830151610b456020860182610a07565b5060408301518482036040860152610b5d8282610a25565b9150506060830151610b726060860182610b90565b506080830151610b856080860182610a83565b508091505092915050565b610b9981610dae565b82525050565b610ba881610dae565b82525050565b6000604082019050610bc36000830185610a16565b610bd06020830184610b9f565b9392505050565b60006080820190508181036000830152610bf18187610ada565b9050610c006020830186610a16565b610c0d6040830185610b9f565b610c1a6060830184610a92565b95945050505050565b60006020820190508181036000830152610c3d8184610b13565b905092915050565b6000602082019050610c5a6000830184610b9f565b92915050565b6000606082019050610c756000830186610b9f565b8181036020830152610c878185610ada565b9050610c9660408301846109f8565b949350505050565b6000604051905081810181811067ffffffffffffffff82111715610cc157600080fd5b8060405250919050565b600067ffffffffffffffff821115610ce257600080fd5b601f19601f8301169050602081019050919050565b6000819050602082019050919050565b600081519050919050565b600081519050919050565b6000602082019050919050565b600082825260208201905092915050565b600082825260208201905092915050565b600082825260208201905092915050565b6000610d6882610d8e565b9050919050565b60008115159050919050565b6000819050610d8982610e53565b919050565b600073ffffffffffffffffffffffffffffffffffffffff82169050919050565b6000819050919050565b6000610dc382610ddc565b9050919050565b6000610dd582610d7b565b9050919050565b6000610de782610dee565b9050919050565b6000610df982610d8e565b9050919050565b82818337600083830152505050565b60005b83811015610e2d578082015181840152602081019050610e12565b83811115610e3c576000848401525b50505050565b6000601f19601f8301169050919050565b60028110610e5d57fe5b50565b610e6981610d6f565b8114610e7457600080fd5b50565b610e8081610dae565b8114610e8b57600080fd5b5056fea264697066735822122065f0dc664fa22c1a2ec0f7f4a962c193bf1d7aee4547893e570c7c29099be2a964736f6c634300060a0033",
  "immutableReferences": {},
  "source": "pragma solidity >=0.4.22 <0.7.0;\npragma experimental ABIEncoderV2;\n\ninterface TokenToPurchase {\n    function transferFromOrigin(address _to, uint256 _value) external returns (bool success);\n}\n\ncontract Purchase {\n    TokenToPurchase token = TokenToPurchase(0x241379715A7aB2958976a237c26d2E1986b55A9b);\n        \n    enum State { Created, Cancelled }\n    \n    uint public id = 0;\n    struct OrderMesaage {\n        string hash;\n        address seller;\n        address[] buyers;\n        uint price;\n        State state;\n    }\n\n    mapping(uint => OrderMesaage) public orders;\n    \n    \n    modifier onlySeller(uint _uid) {\n        require(msg.sender == orders[_uid].seller);\n        _;\n    }\n    \n    modifier inState(uint _uid, State _state) {\n        require(orders[_uid].state == _state );\n        _;\n    }\n\n    event PostOrder(uint _uid, string _hash, address seller);\n\n    //卖家生成卖单。\n    function postOrder(string memory _hash, uint _price) \n        public \n    {       \n        id += 1;\n        orders[id].hash = _hash;\n        orders[id].seller = msg.sender;\n        orders[id].price = _price;\n              \n        emit PostOrder(id, _hash, msg.sender);\n    }\n    \n    //卖家取消卖单。\n    function cancerOrder(uint _uid)\n        public\n        onlySeller(_uid)\n        inState(_uid, State.Created)\n    {\n        orders[_uid].state = State.Cancelled;\n    }\n    \n    //获取卖单信息\n    function getOrder(uint _uid) \n        public \n        view \n        returns (OrderMesaage memory) \n    {\n        return (orders[_uid]);\n    }\n    \n    \n    // 买家确认购买\n    function confirmPurchase(uint _uid)\n        public\n        inState(_uid, State.Created)\n    {\n        orders[_uid].buyers.push(msg.sender);\n        token.transferFromOrigin(orders[_uid].seller, orders[_uid].price);\n    }\n\n}\n",
  "sourcePath": "D:\\vue-work\\truffle-contract\\contracts\\Purchase.sol",
  "compiler": {
    "name": "solc",
    "version": "0.6.10+commit.00c0fcaf.Emscripten.clang"
  },
  "schemaVersion": "3.2.0",
  "updatedAt": "2020-07-06T00:42:11.794Z",
  "networkType": "ethereum",
  "devdoc": {
    "methods": {}
  },
  "userdoc": {
    "methods": {}
  }
}