{
  "contractName": "Purchase",
  "abi": [
    {
      "inputs": [
        {
          "internalType": "address",
          "name": "proxy",
          "type": "address"
        }
      ],
      "stateMutability": "nonpayable",
      "type": "constructor"
    },
    {
      "anonymous": false,
      "inputs": [
        {
          "indexed": true,
          "internalType": "uint24",
          "name": "uid",
          "type": "uint24"
        },
        {
          "indexed": true,
          "internalType": "address",
          "name": "seller",
          "type": "address"
        },
        {
          "indexed": false,
          "internalType": "string",
          "name": "hash",
          "type": "string"
        }
      ],
      "name": "CancerOrder",
      "type": "event"
    },
    {
      "anonymous": false,
      "inputs": [
        {
          "indexed": true,
          "internalType": "uint24",
          "name": "uid",
          "type": "uint24"
        },
        {
          "indexed": true,
          "internalType": "address",
          "name": "buyer",
          "type": "address"
        },
        {
          "indexed": false,
          "internalType": "string",
          "name": "hash",
          "type": "string"
        },
        {
          "indexed": false,
          "internalType": "uint256",
          "name": "price",
          "type": "uint256"
        }
      ],
      "name": "ConfirmPurchase",
      "type": "event"
    },
    {
      "anonymous": false,
      "inputs": [
        {
          "indexed": true,
          "internalType": "uint24",
          "name": "uid",
          "type": "uint24"
        },
        {
          "indexed": true,
          "internalType": "address",
          "name": "seller",
          "type": "address"
        },
        {
          "indexed": false,
          "internalType": "string",
          "name": "hash",
          "type": "string"
        },
        {
          "indexed": false,
          "internalType": "uint256",
          "name": "price",
          "type": "uint256"
        }
      ],
      "name": "PostOrder",
      "type": "event"
    },
    {
      "inputs": [],
      "name": "id",
      "outputs": [
        {
          "internalType": "uint24",
          "name": "",
          "type": "uint24"
        }
      ],
      "stateMutability": "view",
      "type": "function",
      "constant": true
    },
    {
      "inputs": [
        {
          "internalType": "uint24",
          "name": "",
          "type": "uint24"
        }
      ],
      "name": "orders",
      "outputs": [
        {
          "internalType": "string",
          "name": "hash",
          "type": "string"
        },
        {
          "internalType": "address",
          "name": "seller",
          "type": "address"
        },
        {
          "internalType": "uint256",
          "name": "price",
          "type": "uint256"
        },
        {
          "internalType": "enum Purchase.State",
          "name": "state",
          "type": "uint8"
        }
      ],
      "stateMutability": "view",
      "type": "function",
      "constant": true
    },
    {
      "inputs": [
        {
          "internalType": "string",
          "name": "_hash",
          "type": "string"
        },
        {
          "internalType": "uint256",
          "name": "_price",
          "type": "uint256"
        }
      ],
      "name": "postOrder",
      "outputs": [],
      "stateMutability": "nonpayable",
      "type": "function"
    },
    {
      "inputs": [
        {
          "internalType": "uint24",
          "name": "_uid",
          "type": "uint24"
        }
      ],
      "name": "cancerOrder",
      "outputs": [],
      "stateMutability": "nonpayable",
      "type": "function"
    },
    {
      "inputs": [
        {
          "internalType": "uint24",
          "name": "_uid",
          "type": "uint24"
        }
      ],
      "name": "getOrder",
      "outputs": [
        {
          "components": [
            {
              "internalType": "string",
              "name": "hash",
              "type": "string"
            },
            {
              "internalType": "address",
              "name": "seller",
              "type": "address"
            },
            {
              "internalType": "address[]",
              "name": "buyers",
              "type": "address[]"
            },
            {
              "internalType": "uint256",
              "name": "price",
              "type": "uint256"
            },
            {
              "internalType": "enum Purchase.State",
              "name": "state",
              "type": "uint8"
            }
          ],
          "internalType": "struct Purchase.OrderMesaage",
          "name": "",
          "type": "tuple"
        }
      ],
      "stateMutability": "view",
      "type": "function",
      "constant": true
    },
    {
      "inputs": [
        {
          "internalType": "uint24",
          "name": "_uid",
          "type": "uint24"
        }
      ],
      "name": "confirmPurchase",
      "outputs": [],
      "stateMutability": "nonpayable",
      "type": "function"
    }
  ],
  "bytecode": "0x608060405260008060146101000a81548162ffffff021916908362ffffff1602179055506005600060176101000a81548160ff021916908360ff160217905550739fc10900cf34636330d05e9c6ca976b918627023600160006101000a81548173ffffffffffffffffffffffffffffffffffffffff021916908373ffffffffffffffffffffffffffffffffffffffff160217905550348015620000a157600080fd5b5060405162001464380380620014648339818101604052810190620000c7919062000125565b806000806101000a81548173ffffffffffffffffffffffffffffffffffffffff021916908373ffffffffffffffffffffffffffffffffffffffff160217905550506200019f565b6000815190506200011f8162000185565b92915050565b6000602082840312156200013857600080fd5b600062000148848285016200010e565b91505092915050565b60006200015e8262000165565b9050919050565b600073ffffffffffffffffffffffffffffffffffffffff82169050919050565b620001908162000151565b81146200019c57600080fd5b50565b6112b580620001af6000396000f3fe608060405234801561001057600080fd5b50600436106100625760003560e01c80635e760df114610067578063929b209b14610097578063948ce2b5146100b35780639a36b433146100cf578063af640d0f146100eb578063cb3dedaf14610109575b600080fd5b610081600480360381019061007c9190610cd0565b61013c565b60405161008e919061104d565b60405180910390f35b6100b160048036038101906100ac9190610cd0565b610330565b005b6100cd60048036038101906100c89190610cd0565b6104b6565b005b6100e960048036038101906100e49190610c7c565b610839565b005b6100f36109c1565b604051610100919061106f565b60405180910390f35b610123600480360381019061011e9190610cd0565b6109d6565b6040516101339493929190610f7f565b60405180910390f35b610144610acb565b600260008362ffffff1662ffffff1681526020019081526020016000206040518060a0016040529081600082018054600181600116156101000203166002900480601f0160208091040260200160405190810160405280929190818152602001828054600181600116156101000203166002900480156102055780601f106101da57610100808354040283529160200191610205565b820191906000526020600020905b8154815290600101906020018083116101e857829003601f168201915b505050505081526020016001820160009054906101000a900473ffffffffffffffffffffffffffffffffffffffff1673ffffffffffffffffffffffffffffffffffffffff1673ffffffffffffffffffffffffffffffffffffffff168152602001600282018054806020026020016040519081016040528092919081815260200182805480156102e957602002820191906000526020600020905b8160009054906101000a900473ffffffffffffffffffffffffffffffffffffffff1673ffffffffffffffffffffffffffffffffffffffff168152602001906001019080831161029f575b50505050508152602001600382015481526020016004820160009054906101000a900460ff16600181111561031a57fe5b600181111561032557fe5b815250509050919050565b80600260008262ffffff1662ffffff16815260200190815260200160002060010160009054906101000a900473ffffffffffffffffffffffffffffffffffffffff1673ffffffffffffffffffffffffffffffffffffffff163373ffffffffffffffffffffffffffffffffffffffff16146103a957600080fd5b8160008060018111156103b857fe5b600260008462ffffff1662ffffff16815260200190815260200160002060040160009054906101000a900460ff1660018111156103f157fe5b146103fb57600080fd5b6001600260008662ffffff1662ffffff16815260200190815260200160002060040160006101000a81548160ff0219169083600181111561043857fe5b02179055503373ffffffffffffffffffffffffffffffffffffffff168462ffffff167f2bddc6f9b9c1ed3d4b397d9a4419cac7e54ff0964c6d7616e8497fec6f33efb0600260008862ffffff1662ffffff1681526020019081526020016000206000016040516104a89190610ffb565b60405180910390a350505050565b8060008060018111156104c557fe5b600260008462ffffff1662ffffff16815260200190815260200160002060040160009054906101000a900460ff1660018111156104fe57fe5b1461050857600080fd5b60006103e86005600260008762ffffff1662ffffff16815260200190815260200160002060030154028161053857fe5b049050600260008562ffffff1662ffffff168152602001908152602001600020600201339080600181540180825580915050600190039060005260206000200160009091909190916101000a81548173ffffffffffffffffffffffffffffffffffffffff021916908373ffffffffffffffffffffffffffffffffffffffff1602179055506000809054906101000a900473ffffffffffffffffffffffffffffffffffffffff1673ffffffffffffffffffffffffffffffffffffffff1663a31fe347600160009054906101000a900473ffffffffffffffffffffffffffffffffffffffff16836040518363ffffffff1660e01b815260040161063a929190610f56565b602060405180830381600087803b15801561065457600080fd5b505af1158015610668573d6000803e3d6000fd5b505050506040513d601f19601f8201168201806040525081019061068c9190610c53565b506000809054906101000a900473ffffffffffffffffffffffffffffffffffffffff1673ffffffffffffffffffffffffffffffffffffffff1663a31fe347600260008762ffffff1662ffffff16815260200190815260200160002060010160009054906101000a900473ffffffffffffffffffffffffffffffffffffffff1683600260008962ffffff1662ffffff16815260200190815260200160002060030154036040518363ffffffff1660e01b815260040161074b929190610f56565b602060405180830381600087803b15801561076557600080fd5b505af1158015610779573d6000803e3d6000fd5b505050506040513d601f19601f8201168201806040525081019061079d9190610c53565b503373ffffffffffffffffffffffffffffffffffffffff168462ffffff167fa2f476d80b06d79e7e40decb2ee029aae91ce15bc7333a3abfb35c8dd458ab57600260008862ffffff1662ffffff168152602001908152602001600020600001600260008962ffffff1662ffffff1681526020019081526020016000206003015460405161082b92919061101d565b60405180910390a350505050565b6001600060148282829054906101000a900462ffffff160192506101000a81548162ffffff021916908362ffffff16021790555081600260008060149054906101000a900462ffffff1662ffffff1662ffffff16815260200190815260200160002060000190805190602001906108b1929190610b1b565b5033600260008060149054906101000a900462ffffff1662ffffff1662ffffff16815260200190815260200160002060010160006101000a81548173ffffffffffffffffffffffffffffffffffffffff021916908373ffffffffffffffffffffffffffffffffffffffff16021790555080600260008060149054906101000a900462ffffff1662ffffff1662ffffff168152602001908152602001600020600301819055503373ffffffffffffffffffffffffffffffffffffffff16600060149054906101000a900462ffffff1662ffffff167fa3089f7d5e502c00dc3460ec878e9d608bf541cd4831277ac13c0eb705b4a57684846040516109b5929190610fcb565b60405180910390a35050565b600060149054906101000a900462ffffff1681565b6002602052806000526040600020600091509050806000018054600181600116156101000203166002900480601f016020809104026020016040519081016040528092919081815260200182805460018160011615610100020316600290048015610a825780601f10610a5757610100808354040283529160200191610a82565b820191906000526020600020905b815481529060010190602001808311610a6557829003601f168201915b5050505050908060010160009054906101000a900473ffffffffffffffffffffffffffffffffffffffff16908060030154908060040160009054906101000a900460ff16905084565b6040518060a0016040528060608152602001600073ffffffffffffffffffffffffffffffffffffffff168152602001606081526020016000815260200160006001811115610b1557fe5b81525090565b828054600181600116156101000203166002900490600052602060002090601f016020900481019282601f10610b5c57805160ff1916838001178555610b8a565b82800160010185558215610b8a579182015b82811115610b89578251825591602001919060010190610b6e565b5b509050610b979190610b9b565b5090565b610bbd91905b80821115610bb9576000816000905550600101610ba1565b5090565b90565b600081519050610bcf8161123a565b92915050565b600082601f830112610be657600080fd5b8135610bf9610bf4826110b7565b61108a565b91508082526020830160208301858383011115610c1557600080fd5b610c208382846111da565b50505092915050565b600081359050610c3881611251565b92915050565b600081359050610c4d81611268565b92915050565b600060208284031215610c6557600080fd5b6000610c7384828501610bc0565b91505092915050565b60008060408385031215610c8f57600080fd5b600083013567ffffffffffffffff811115610ca957600080fd5b610cb585828601610bd5565b9250506020610cc685828601610c3e565b9150509250929050565b600060208284031215610ce257600080fd5b6000610cf084828501610c29565b91505092915050565b6000610d058383610d11565b60208301905092915050565b610d1a8161115e565b82525050565b610d298161115e565b82525050565b6000610d3a82611108565b610d44818561112b565b9350610d4f836110e3565b8060005b83811015610d80578151610d678882610cf9565b9750610d728361111e565b925050600181019050610d53565b5085935050505092915050565b610d96816111c8565b82525050565b610da5816111c8565b82525050565b6000610db682611113565b610dc0818561113c565b9350610dd08185602086016111e9565b610dd98161121c565b840191505092915050565b6000610def82611113565b610df9818561114d565b9350610e098185602086016111e9565b610e128161121c565b840191505092915050565b600081546001811660008114610e3a5760018114610e6057610ea4565b607f6002830416610e4b818761114d565b955060ff198316865260208601935050610ea4565b60028204610e6e818761114d565b9550610e79856110f3565b60005b82811015610e9b57815481890152600182019150602081019050610e7c565b80880195505050505b505092915050565b600060a0830160008301518482036000860152610ec98282610dab565b9150506020830151610ede6020860182610d11565b5060408301518482036040860152610ef68282610d2f565b9150506060830151610f0b6060860182610f38565b506080830151610f1e6080860182610d8d565b508091505092915050565b610f32816111af565b82525050565b610f41816111be565b82525050565b610f50816111be565b82525050565b6000604082019050610f6b6000830185610d20565b610f786020830184610f47565b9392505050565b60006080820190508181036000830152610f998187610de4565b9050610fa86020830186610d20565b610fb56040830185610f47565b610fc26060830184610d9c565b95945050505050565b60006040820190508181036000830152610fe58185610de4565b9050610ff46020830184610f47565b9392505050565b600060208201905081810360008301526110158184610e1d565b905092915050565b600060408201905081810360008301526110378185610e1d565b90506110466020830184610f47565b9392505050565b600060208201905081810360008301526110678184610eac565b905092915050565b60006020820190506110846000830184610f29565b92915050565b6000604051905081810181811067ffffffffffffffff821117156110ad57600080fd5b8060405250919050565b600067ffffffffffffffff8211156110ce57600080fd5b601f19601f8301169050602081019050919050565b6000819050602082019050919050565b60008190508160005260206000209050919050565b600081519050919050565b600081519050919050565b6000602082019050919050565b600082825260208201905092915050565b600082825260208201905092915050565b600082825260208201905092915050565b60006111698261118f565b9050919050565b60008115159050919050565b600081905061118a8261122d565b919050565b600073ffffffffffffffffffffffffffffffffffffffff82169050919050565b600062ffffff82169050919050565b6000819050919050565b60006111d38261117c565b9050919050565b82818337600083830152505050565b60005b838110156112075780820151818401526020810190506111ec565b83811115611216576000848401525b50505050565b6000601f19601f8301169050919050565b6002811061123757fe5b50565b61124381611170565b811461124e57600080fd5b50565b61125a816111af565b811461126557600080fd5b50565b611271816111be565b811461127c57600080fd5b5056fea26469706673582212202ba5f92a21833f0a936c1ab341ad0a3954df852d08f66d231202d42c3c4013dc64736f6c634300060a0033",
  "immutableReferences": {},
  "source": "pragma solidity >=0.4.22 <0.7.0;\npragma experimental ABIEncoderV2;\n\ninterface TokenProxyToPurchase  {\n    function transferFromProxy(address recipient, uint256 amount) external returns (bool);\n}\n\ncontract Purchase {\n    TokenProxyToPurchase tokenproxy;\n\n    constructor(address proxy) public \n    {\n       tokenproxy = TokenProxyToPurchase(proxy);\n    }\n        \n    enum State { Created, Cancelled }\n    \n    uint24 public id = 0;\n    uint8 fee = 5;\n    address feeTo = 0x9fc10900cF34636330D05e9c6CA976b918627023;\n    struct OrderMesaage {\n        string hash;\n        address seller;\n        address[] buyers;\n        uint price;\n        State state;\n    }\n\n    mapping(uint24 => OrderMesaage) public orders;\n    \n    modifier onlySeller(uint24 _uid) {\n        require(msg.sender == orders[_uid].seller);\n        _;\n    }\n    \n    modifier inState(uint24 _uid, State _state) {\n        require(orders[_uid].state == _state );\n        _;\n    }\n\n    event PostOrder(uint24 indexed uid, address indexed seller, string hash, uint price);\n    event CancerOrder(uint24 indexed uid, address indexed seller, string hash);\n    event ConfirmPurchase(uint24 indexed uid, address indexed buyer, string hash, uint price);\n\n    //卖家生成卖单。\n    function postOrder(string memory _hash, uint _price) \n        public \n    {       \n        id += 1;\n        orders[id].hash = _hash;\n        orders[id].seller = msg.sender;\n        orders[id].price = _price;\n        emit PostOrder(id, msg.sender, _hash, _price);\n    }\n    \n    //卖家取消卖单。\n    function cancerOrder(uint24 _uid)\n        public\n        onlySeller(_uid)\n        inState(_uid, State.Created)\n    {\n        orders[_uid].state = State.Cancelled;\n        emit CancerOrder(_uid, msg.sender, orders[_uid].hash);\n    }\n    \n    //获取卖单信息\n    function getOrder(uint24 _uid) \n        public \n        view \n        returns (OrderMesaage memory) \n    {\n        return (orders[_uid]);\n    }\n    \n    \n    // 买家确认购买\n    function confirmPurchase(uint24 _uid)\n        public\n        inState(_uid, State.Created)\n    {\n        uint feeAmount = orders[_uid].price * 5 / 1000;\n        orders[_uid].buyers.push(msg.sender);\n        tokenproxy.transferFromProxy(feeTo, feeAmount);\n        tokenproxy.transferFromProxy(orders[_uid].seller, orders[_uid].price - feeAmount);\n        emit ConfirmPurchase(_uid, msg.sender, orders[_uid].hash, orders[_uid].price);\n    }\n\n}\n",
  "sourcePath": "D:/vue-work/truffle-contract/contracts/Purchase.sol",
  "compiler": {
    "name": "solc",
    "version": "0.6.10+commit.00c0fcaf.Emscripten.clang"
  },
  "schemaVersion": "3.2.2",
  "updatedAt": "2020-08-15T02:56:54.540Z",
  "networkType": "ethereum",
  "devdoc": {
    "methods": {}
  },
  "userdoc": {
    "methods": {}
  }
}